:020000040800F2
:10000000002800206D140008FD13000803140008E8
:10001000091400080F14000815140008000000005F
:100020000000000000000000000000001B14000899
:100030002714000800000000331400083F140008D3
:10004000B5140008B5140008B5140008B51400086C
:10005000B5140008B5140008B5140008B51400085C
:10006000B5140008B5140008B5140008B51400084C
:10007000B5140008B5140008B5140008B51400083C
:10008000B5140008B5140008B5140008B51400082C
:10009000B5140008B5140008B5140008B51400081C
:1000A000B5140008B5140008B5140008B51400080C
:1000B0004D140008B514000800000000B514000835
:1000C000B51400080000000000000000B51400088E
:1000D00000000000B5140008B5140008000000007E
:1000E000B5140008B5140008B5140008000000009D
:1000F0000000000000000000000000000000000000
:0C01000000000000000000005FF808F1A3
:10010C0010B5054C237833B9044B13B10448AFF345
:10011C0000800123237010BD680000200000000047
:10012C00CC2A000808B5034B1BB103490348AFF3B5
:10013C00008008BD000000006C000020CC2A0008E4
:10014C0080B483B000AF00237B600CE00A4A7B686C
:10015C00002142F82310094A7B68002142F8231041
:10016C007B6801337B607B68022BEFDD00BF00BF37
:10017C000C37BD4680BC70478400002090000020E6
:10018C0080B483B000AF7860044A7B68012142F8E8
:10019C00231000BF0C37BD4680BC70478400002084
:1001AC0080B483B000AF7860044A7B68012142F8C8
:1001BC00231000BF0C37BD4680BC70479000002058
:1001CC0080B483B000AF7860094A7B6852F8233062
:1001DC00012B06D1064A7B68002142F8231001232B
:1001EC0000E0002318460C37BD4680BC704700BFAA
:1001FC008400002080B483B000AF7860094A7B682B
:10020C0052F82330012B06D1064A7B68002142F8B4
:10021C002310012300E0002318460C37BD4680BC98
:10022C00704700BF9000002080B582B000AF7860AE
:10023C00564A7B6852F8232055497B6841F82320A5
:10024C00544A7B6852F8232050497B6841F823209C
:10025C007B68022B1DD07B68022B24DC7B68002B77
:10026C0003D07B68012B0AD01DE04FF400514A48A3
:10027C0001F006FC03461A46464B1A6014E04FF494
:10028C008041454801F0FCFB03461A46414B5A603D
:10029C000AE04FF40041404801F0F2FB03461A46D5
:1002AC003C4B9A6000E000BF394A7B6852F823202F
:1002BC0036497B6851F823309A4262D1334A7B68C5
:1002CC0052F8232033497B6851F823309A4258D195
:1002DC00304A7B6852F8232030497B6851F8233030
:1002EC009A422CD02B4A7B6852F823202B497B68EE
:1002FC0041F82320274A7B6852F82330012B0DD17B
:10030C00274A7B6852F82330012B07D1244A7B689B
:10031C00002142F823107868FFF732FF1D4A7B68F2
:10032C0052F82330002B04D11D4A7B68012142F87E
:10033C0023101C4A7B68C82142F8231021E0194A7B
:10034C007B6852F823305A1E16497B6841F82320EB
:10035C00144A7B6852F82330002B12D10D4A7B686B
:10036C0052F82330002B07D10D4A7B68002142F84C
:10037C0023107868FFF714FF0A4A7B68C82142F8FB
:10038C00231000BF0837BD4680BD00BF0C00002005
:10039C00000000201800002000080140240000206C
:1003AC009C0000203000002080B582B000AF0023FC
:1003BC007B6005E07868FFF737FF7B6801337B6073
:1003CC007B68022BF6DD00BF00BF0837BD4680BD41
:1003DC0080B500AF094B1B68012B0DD14FF47A701F
:1003EC0000F03AFF064B1B68013B054A1360054BB6
:1003FC001B68013B034A136000BF80BDC000002096
:10040C00B4000020B800002080B400AF074B0122DC
:10041C001A60074B1B68074A1360074B1B68074A97
:10042C00136000BFBD4680BC704700BF3C0000207D
:10043C0040000020B400002054000020B800002030
:10044C0080B500AFFFF77CFE00224FF48071174897
:10045C0001F02DFB01224FF40071144801F027FB31
:10046C0001224FF48061114801F021FB0022802110
:10047C000F4801F01CFB01224FF480710C4801F075
:10048C0016FB01224FF40071094801F010FB094BD7
:10049C001B68094A1360074B1B68084A1360064B1C
:1004AC001B68074A136000BF80BD00BF00080140F5
:1004BC00000C014040000020A8000020B4000020E7
:1004CC00B800002080B500AF01224FF480711748AE
:1004DC0001F0EDFA00224FF40071144801F0E7FA34
:1004EC0001224FF48061114801F0E1FA01228021D0
:1004FC000F4801F0DCFA00224FF480710C4801F037
:10050C00D6FA01224FF40071094801F0D0FA094BD8
:10051C001B68094A1360074B1B68084A1360064B9B
:10052C001B68074A136000BF80BD00BF0008014074
:10053C00000C014044000020A8000020B400002062
:10054C00B800002080B500AFFFF7FAFD01224FF490
:10055C008071174801F0ABFA01224FF40071144876
:10056C0001F0A5FA00224FF48061114801F09FFAC6
:10057C00012280210F4801F09AFA01224FF4807178
:10058C000C4801F094FA00224FF40071094801F074
:10059C008EFA094B1B68094A1360074B1B68084A03
:1005AC001360064B1B68074A136000BF80BD00BF79
:1005BC0000080140000C014048000020A800002069
:1005CC00B4000020B800002080B500AF474B1B687A
:1005DC00042B7FD801A252F823F000BFFD050008C0
:1005EC00170600084D0600087B060008A90600083F
:1005FC003E4B01221A604FF47A7000F02DFEFA2067
:10060C0000F044FEFFF700FF6DE0FFF7E1FE00F0A5
:10061C00FFFB00F08DFB0020FFF7D2FD0346002B03
:10062C0005D10020FFF7E6FD0346002B54D02F4BDD
:10063C0002221A60FA2000F029FEFFF701FF4BE0BE
:10064C0000F076FB0020FFF7BBFD0346002B05D125
:10065C000020FFF7CFFD0346002B3FD0234B032296
:10066C001A60FA2000F012FEFFF72CFF36E000F0C3
:10067C005FFB0020FFF7A4FD0346002B05D10020F3
:10068C00FFF7B8FD0346002B2AD0184B04221A6042
:10069C00FA2000F0FBFDFFF755FF21E000F048FBCE
:1006AC000020FFF78DFD0346002B05D10020FFF73E
:1006BC00A1FD0346002B15D00C4B01221A604FF400
:1006CC00FA7000F0C9FD4FF4FA7000F0DFFDFFF78F
:1006DC009BFE07E000BF06E000BF04E000BF02E0A5
:1006EC0000BF00E000BF00BF80BD00BFB000002015
:1006FC0080B582B000AF78607B68092B00F28081F6
:10070C0001A252F823F000BF3D070008850700083E
:10071C00CD070008150800085D080008A5080008AA
:10072C00ED080008350900087D090008C509000816
:10073C0000220221B54801F0BAF900220421B34885
:10074C0001F0B5F900220821B04801F0B0F90022FF
:10075C001021AE4801F0ABF900222021AB4801F08A
:10076C00A6F900224021A94801F0A1F9012280211B
:10077C00A64801F09CF944E101220221A34801F0B2
:10078C0096F900220421A14801F091F900220821D8
:10079C009E4801F08CF9012210219C4801F087F948
:1007AC0001222021994801F082F901224021974829
:1007BC0001F07DF901228021944801F078F920E1C3
:1007CC0000220221914801F072F9002204218F4885
:1007DC0001F06DF9012208218C4801F068F9002222
:1007EC0010218A4801F063F900222021874801F08A
:1007FC005EF901224021854801F059F9002280213F
:10080C00824801F054F9FCE0002202217F4801F0FB
:10081C004EF9002204217D4801F049F900220821FB
:10082C007A4801F044F900221021784801F03FF990
:10083C0001222021754801F03AF901224021734828
:10084C0001F035F900228021704801F030F9D8E030
:10085C00012202216D4801F02AF9002204216B4883
:10086C0001F025F900220821684801F020F9012245
:10087C001021664801F01BF901222021634801F088
:10088C0016F900224021614801F011F90022802163
:10089C005E4801F00CF9B4E0002202215B4801F043
:1008AC0006F901220421594801F001F9002208211E
:1008BC00564801F0FCF800221021544801F0F7F8DA
:1008CC0001222021514801F0F2F8002240214F482A
:1008DC0001F0EDF8002280214C4801F0E8F890E09E
:1008EC0000220221494801F0E2F801220421474884
:1008FC0001F0DDF800220821444801F0D8F800226C
:10090C001021424801F0D3F8002220213F4801F089
:10091C00CEF8002240213D4801F0C9F80022802188
:10092C003A4801F0C4F86CE000220221374801F08B
:10093C00BEF800220421354801F0B9F80022082144
:10094C00324801F0B4F801221021304801F0AFF820
:10095C00012220212D4801F0AAF8012240212B4828
:10096C0001F0A5F801228021284801F0A0F848E008
:10097C0000220221254801F09AF800220421234884
:10098C0001F095F800220821204801F090F800228F
:10099C0010211E4801F08BF8002220211B4801F089
:1009AC0086F800224021194801F081F800228021AC
:1009BC00164801F07CF824E000220221134801F0D3
:1009CC0076F800220421114801F071F80022082168
:1009DC000E4801F06CF8002210210C4801F067F869
:1009EC0001222021094801F062F800224021074829
:1009FC0001F05DF800228021044801F058F800E075
:100A0C0000BF00BF0837BD4680BD00BF00080140D5
:100A1C0080B582B000AF78607B68092B00F28081D2
:100A2C0001A252F823F000BF5D0A0008A50A0008D5
:100A3C00ED0A0008350B00087D0B0008C50B0008FB
:100A4C000D0C0008550C00089D0C0008E50C000866
:100A5C0000220121B54801F02AF800220221B348F6
:100A6C0001F025F800220421B04801F020F8002202
:100A7C000821AE4801F01BF800221021AB4801F010
:100A8C0016F800222021A94801F011F8012240217A
:100A9C00A64801F00CF844E101220121A34801F021
:100AAC0006F800220221A14801F001F800220421DD
:100ABC009E4800F0FCFF012208219C4800F0F7FF43
:100ACC0001221021994800F0F2FF012220219748C1
:100ADC0000F0EDFF01224021944800F0E8FF20E1F6
:100AEC0000220121914800F0E2FF002202218F48F0
:100AFC0000F0DDFF012204218C4800F0D8FF002219
:100B0C0008218A4800F0D3FF00221021874800F00A
:100B1C00CEFF01222021854800F0C9FF0022402190
:100B2C00824800F0C4FFFCE0002201217F4800F065
:100B3C00BEFF002202217D4800F0B9FF00220421F3
:100B4C007A4800F0B4FF00220821784800F0AFFF8B
:100B5C0001221021754800F0AAFF012220217348C0
:100B6C0000F0A5FF00224021704800F0A0FFD8E063
:100B7C00012201216D4800F09AFF002202216B48EE
:100B8C0000F095FF00220421684800F090FF01223C
:100B9C000821664800F08BFF01221021634800F009
:100BAC0086FF00222021614800F081FF00224021B5
:100BBC005E4800F07CFFB4E0002201215B4800F0AD
:100BCC0076FF01220221594800F071FF0022042116
:100BDC00564800F06CFF00220821544800F067FFD3
:100BEC0001221021514800F062FF002220214F48C1
:100BFC0000F05DFF002240214C4800F058FF90E0CF
:100C0C0000220121494800F052FF012202214748ED
:100C1C0000F04DFF00220421444800F048FF002260
:100C2C000821424800F043FF002210213F4800F009
:100C3C003EFF002220213D4800F039FF00224021D8
:100C4C003A4800F034FF6CE000220121374800F0F4
:100C5C002EFF00220221354800F029FF002204213A
:100C6C00324800F024FF01220821304800F01FFF19
:100C7C00012210212D4800F01AFF012220212B48BF
:100C8C0000F015FF01224021284800F010FF48E039
:100C9C0000220121254800F00AFF002202212348EE
:100CAC0000F005FF00220421204800F000FF002284
:100CBC0008211E4800F0FBFE002210211B4800F00A
:100CCC00F6FE00222021194800F0F1FE00224021FE
:100CDC00164800F0ECFE24E000220121134800F03D
:100CEC00E6FE00220221114800F0E1FE0022042160
:100CFC000E4800F0DCFE002208210C4800F0D7FE64
:100D0C0001221021094800F0D2FE002220210748C0
:100D1C0000F0CDFE00224021044800F0C8FE00E0A7
:100D2C0000BF00BF0837BD4680BD00BF000C0140AE
:100D3C0080B500AF304B1B68012B5BD12F4B1B6870
:100D4C00C3F101032D4A1360FA2000F09FFA2B4BDC
:100D5C001B68002B2CD100224FF40061284800F0B6
:100D6C00A6FE01224FF48051254800F0A0FE254B31
:100D7C001A68254B83FB02139910D317C91A0B461B
:100D8C009B000B445B00D11A0846FFF7B1FC1F4BCC
:100D9C001A681D4B83FB02139910D317C91A0B4603
:100DAC009B000B445B00D11A0846FFF731FE21E093
:100DBC0001224FF40061124800F079FE00224FF43A
:100DCC0080510F4800F073FE0E4B1B680E4A82FBDD
:100DDC0003129210DB17D31A1846FFF789FC0B4B42
:100DEC001B68094A82FB03129210DB17D31A1846B0
:100DFC00FFF70EFE00BF80BDC8000020AC00002035
:100E0C0000080140B400002067666666B800002048
:100E1C0080B500AF7D4B1B68013B032B00F2EA80D1
:100E2C0001A252F823F000BF450E0008B50E0008D1
:100E3C00250F0008930F000800224FF480717448AE
:100E4C0000F035FE01224FF40071714800F02FFEC6
:100E5C0001224FF480616E4800F029FE01228021AE
:100E6C006C4800F024FE01224FF48071694800F0B8
:100E7C001EFE00224FF40071664800F018FE664B0F
:100E8C001B68002B00F3B880604B02221A604FF4F1
:100E9C007A7000F0E1F9614B1B68604A1360604B9B
:100EAC001B685D4A1360A7E000224FF4807158481C
:100EBC0000F0FDFD01224FF40071554800F0F7FDE4
:100ECC0001224FF48061524800F0F1FD0122802193
:100EDC00504800F0ECFD00224FF480714D4800F0BA
:100EEC00E6FD01224FF400714A4800F0E0FD4A4B48
:100EFC001B68002B00F38280444B03221A604FF4D2
:100F0C007A7000F0A9F9474B1B68444A1360464BB2
:100F1C001B68414A136071E001224FF480713C4818
:100F2C0000F0C5FD01224FF40071394800F0BFFDFF
:100F3C0000224FF48061364800F0B9FD0022802178
:100F4C00344800F0B4FD01224FF48071314800F0B8
:100F5C00AEFD01224FF400712E4800F0A8FD2F4B7E
:100F6C001B68002B4CDC294B04221A604FF47A705E
:100F7C0000F072F92D4B1B68284A1360264B1B6836
:100F8C00254A13603CE001224FF48071204800F0A8
:100F9C008EFD00224FF400711D4800F088FD0122E7
:100FAC004FF480611A4800F082FD0022802119481C
:100FBC0000F07DFD01224FF48071164800F077FDA2
:100FCC0001224FF40071134800F071FD134B1B68A4
:100FDC00002B17DC0D4B01221A604FF47A7000F0D5
:100FEC003BF9134B1B680D4A1360124B1B680A4AE2
:100FFC00136007E000BF06E000BF04E000BF02E0A2
:10100C0000BF00E000BF00BF80BD00BF3C0000205F
:10101C0000080140000C0140B8000020B400002082
:10102C0050000020480000204C000020440000200C
:10103C00400000205400002080B500AF00F036FACC
:10104C0000F00CF800F092F800F044F8024801F0BF
:10105C0073F9FFF7B9FAFCE7D400002080B590B023
:10106C0000AF07F1180328220021184601F020FDDB
:10107C003B1D00221A605A609A60DA601A610223E2
:10108C00BB610123BB621023FB6200237B6307F16E
:10109C001803184600F024FD0346002B01D000F085
:1010AC00D5F80F237B600023BB600023FB6000237B
:1010BC003B6100237B613B1D0021184600F090FF33
:1010CC000346002B01D000F0C1F800BF4037BD46ED
:1010DC0080BD000080B586B000AF07F10803002288
:1010EC001A605A609A60DA603B4600221A605A60B5
:1010FC001D4B4FF080421A601B4B41F63F725A60F9
:10110C00194B00229A60184B0922DA60164B002208
:10111C001A61154B00229A61134801F0BDF8034681
:10112C00002B01D000F092F84FF48053BB6007F114
:10113C00080319460C4801F053FA0346002B01D062
:10114C0000F084F800233B6000237B603B4619468B
:10115C00054801F01FFC0346002B01D000F076F887
:10116C0000BF1837BD4680BDD400002080B586B0C6
:10117C0000AF07F1080300221A605A609A60DA6027
:10118C00294B9B69284A43F004039361264B9B69C6
:10119C0003F004037B607B68234B9B69224A43F07A
:1011AC0008039361204B9B6903F008033B603B6889
:1011BC00002241F6FE711D4800F079FC002240F23D
:1011CC00FF311B4800F073FC41F6FE73BB6001233A
:1011DC00FB6000233B6102237B6107F10803194686
:1011EC00124800F0D3FA40F2FF33BB600123FB60DE
:1011FC0000233B6102237B6107F1080319460C486D
:10120C0000F0C4FA4FF46043BB600023FB60012381
:10121C003B6107F108031946044800F0B7FA00BF18
:10122C001837BD4680BD00BF0010024000080140C9
:10123C00000C014080B582B000AF786000F040F83F
:10124C00FFF7B2F800BF0837BD4680BD80B400AFD1
:10125C0072B600BFFEE7000080B483B000AF7860C8
:10126C00074B1B687A6892FBF3F3064A1360064B34
:10127C0000221A6000BF0C37BD4680BC704700BF0F
:10128C0058000020BC000020C000002080B483B0B7
:10129C0000AF7860074B1B687A6892FBF3F3064A41
:1012AC001360064B00221A6000BF0C37BD4680BC91
:1012BC00704700BF58000020C4000020C800002068
:1012CC0080B400AF194B1B68002B0BDD174B1B6850
:1012DC00013B164A1360154B1B68002B02DC144BA8
:1012EC0001221A60134B1B68002B0BDD114B1B6882
:1012FC00013B104A13600F4B1B68002B02DC0E4B9A
:10130C0001221A600D4B1B68002B0BDD0B4B1B686D
:10131C00013B0A4A1360094B1B68002B02DC084B8B
:10132C0001221A6000BFBD4680BC7047BC00002083
:10133C00C0000020C4000020C8000020CC00002009
:10134C00D000002080B485B000AF154B9B69144AC7
:10135C0043F001039361124B9B6903F00103BB60E3
:10136C00BB680F4BDB690E4A43F08053D3610C4BC7
:10137C00DB6903F080537B607B680A4B5B68FB6026
:10138C00FB6823F0E063FB60FB6843F08063FB6069
:10139C00044AFB68536000BF1437BD4680BC7047DD
:1013AC00001002400000014080B584B000AF7860AE
:1013BC007B681B68B3F1804F13D10C4BDB690B4A74
:1013CC0043F00103D361094BDB6903F00103FB60BC
:1013DC00FB68002200211C2000F0A1F91C2000F069
:1013EC00BAF900BF1037BD4680BD00BF00100240E7
:1013FC0080B400AFFEE780B400AFFEE780B400AF6E
:10140C00FEE780B400AFFEE780B400AFFEE780B427
:10141C0000AF00BFBD4680BC704780B400AF00BFBA
:10142C00BD4680BC704780B400AF00BFBD4680BCD9
:10143C00704780B500AF00F07FF800BF80BD0000A2
:10144C0080B500AF024800F0C3FF00BF80BD00BFF5
:10145C00D400002080B400AF00BFBD4680BC7047F4
:10146C00FFF7F8FF0B480C490C4A002302E0D45854
:10147C00C4500433C4188C42F9D3094A094C0023D4
:10148C0001E013600432A242FBD301F0EDFAFFF746
:10149C00D3FD70470000002068000020102B0008CE
:1014AC006800002020010020FEE7000080B500AF9E
:1014BC00084B1B68074A43F010031360032000F02D
:1014CC0023F90F2000F008F8FFF73CFF0023184623
:1014DC0080BD00BF0020024080B582B000AF7860B4
:1014EC00124B1A68124B1B7819464FF47A73B3FBE4
:1014FC00F1F3B2FBF3F3184600F03BF90346002B73
:10150C0001D001230EE07B680F2B0AD800227968EA
:10151C004FF0FF3000F003F9064A7B68136000239C
:10152C0000E0012318460837BD4680BD5C00002052
:10153C00640000206000002080B400AF054B1B78D5
:10154C001A46054B1B681344034A136000BFBD4683
:10155C0080BC7047640000201C01002080B400AFE8
:10156C00024B1B681846BD4680BC70471C0100200E
:10157C0080B485B000AF78607B6803F00703FB6034
:10158C000C4BDB68BB60BA684FF6FF031340BB60C3
:10159C00FB681A02BB68134343F0BF6343F4003388
:1015AC00BB60044ABB68D36000BF1437BD4680BC27
:1015BC00704700BF00ED00E080B400AF044BDB6867
:1015CC001B0A03F007031846BD4680BC704700BFDA
:1015DC0000ED00E080B483B000AF0346FB7197F9D7
:1015EC000730002B0BDBFB7903F01F02064997F940
:1015FC0007305B09012000FA02F241F8232000BFFA
:10160C000C37BD4680BC704700E100E080B483B06D
:10161C0000AF03463960FB7197F90730002B0ADBEA
:10162C003B68DAB20C4997F907301201D2B20B447D
:10163C0083F800230AE03B68DAB20849FB7903F02F
:10164C000F03043B1201D2B20B441A7600BF0C37C5
:10165C00BD4680BC704700BF00E100E000ED00E03B
:10166C0080B489B000AFF860B9607A60FB6803F0B1
:10167C000703FB61FB69C3F10703042B28BF042399
:10168C00BB61FB690433062B02D9FB69033B00E009
:10169C0000237B614FF0FF32BB6902FA03F3DA439C
:1016AC00BB681A407B699A404FF0FF317B6901FAA5
:1016BC0003F3D9437B680B40134318462437BD46CC
:1016CC0080BC704780B582B000AF78607B68013B0E
:1016DC00B3F1807F01D301230FE00A4A7B68013B01
:1016EC0053600F214FF0FF30FFF790FF054B0022A6
:1016FC009A60044B07221A60002318460837BD462F
:10170C0080BD00BF10E000E080B582B000AF786013
:10171C007868FFF72DFF00BF0837BD4680BD80B548
:10172C0086B000AF0346B9607A60FB7300237B611F
:10173C00FFF742FF78617A68B9687869FFF790FF24
:10174C00024697F90F3011461846FFF75FFF00BFAE
:10175C001837BD4680BD80B582B000AF0346FB7123
:10176C0097F907301846FFF735FF00BF0837BD461D
:10177C0080BD80B582B000AF78607868FFF7A2FFBB
:10178C00034618460837BD4680BD000080B48BB0B8
:10179C0000AF7860396000237B6200233B6248E134
:1017AC0001227B6A02FA03F3FB613B681B68FA694E
:1017BC001340BB61BA69FB699A4240F037813B68C0
:1017CC005B68A34A93425ED0A14A934275D8A14A62
:1017DC00934258D09F4A93426FD89F4A934252D01B
:1017EC009D4A934269D89D4A93424CD09B4A93425E
:1017FC0063D89B4A934246D0994A93425DD8122BA8
:10180C002AD8122B59D801A252F823F093180008A9
:10181C006D1800087F180008C1180008C7180008C8
:10182C00C7180008C7180008C7180008C718000810
:10183C00C7180008C7180008C7180008C718000800
:10184C00C7180008C7180008C7180008C7180008F0
:10185C007518000889180008824A934213D02CE0AE
:10186C003B68DB683B6229E03B68DB6804333B6226
:10187C0024E03B68DB6808333B621FE03B68DB68B5
:10188C000C333B621AE03B689B68002B02D10423AB
:10189C003B6213E03B689B68012B05D108233B623C
:1018AC007B68FA691A6109E008233B627B68FA6974
:1018BC005A6103E000233B6200E000BFBB69FF2BD1
:1018CC0001D87B6801E07B6804337B61BB69FF2B2B
:1018DC0002D87B6A9B0002E07B6A083B9B003B6161
:1018EC007B691A680F213B6901FA03F3DB431A4049
:1018FC00396A3B6901FA03F31A437B691A603B6846
:10190C005B6803F08053002B00F09080564B9B6972
:10191C00554A43F001039361534B9B6903F0010358
:10192C00BB60BB68514A7B6A9B08023352F8233078
:10193C00FB607B6A03F003039B000F2202FA03F3A4
:10194C00DB43FA681340FB607B68494A93420DD035
:10195C007B68484A934207D07B68474A934201D13F
:10196C00022304E0032302E0012300E000237A6A4F
:10197C0002F0030292009340FA681343FB603B4968
:10198C007B6A9B080233FA6841F823203B685B684A
:10199C0003F48013002B06D0384B9A683749BB6987
:1019AC0013438B6006E0354B9A68BB69DB433349C4
:1019BC0013408B603B685B6803F40013002B06D06C
:1019CC002E4BDA682D49BB691343CB6006E02B4BD9
:1019DC00DA68BB69DB4329491340CB603B685B6821
:1019EC0003F40033002B06D0244B5A682349BB69FF
:1019FC0013434B6006E0214B5A68BB69DB431F491C
:101A0C0013404B603B685B6803F48033002B06D0BB
:101A1C001A4B1A681949BB6913430B6006E0174B44
:101A2C001A68BB69DB43154913400B607B6A0133B1
:101A3C007B623B681A687B6A22FA03F3002B7FF403
:101A4C00AFAE00BF00BF2C37BD4680BC704700BF97
:101A5C000000321000003110000022100000211094
:101A6C000000121000001110001002400000014094
:101A7C0000080140000C014000100140000401402E
:101A8C0080B485B000AF78600B467B807B689A6829
:101A9C007B881340002B02D00123FB7301E0002351
:101AAC00FB73FB7B18461437BD4680BC704780B473
:101ABC0083B000AF78600B467B8013467B707B78DD
:101ACC00002B03D07A887B681A6103E07B881A04A8
:101ADC007B681A6100BF0C37BD4680BC70470000A4
:101AEC0080B586B000AF78607B68002B01D10123F4
:101AFC006CE27B681B6803F00103002B00F087800D
:101B0C00924B5B6803F00C03042B0CD08F4B5B687F
:101B1C0003F00C03082B12D18C4B5B6803F480335D
:101B2C00B3F5803F0BD1894B1B6803F40033002BBA
:101B3C006CD07B685B68002B68D1012346E27B6824
:101B4C005B68B3F5803F06D1804B1B687F4A43F43A
:101B5C00803313602EE07B685B68002B0CD17B4BD1
:101B6C001B687A4A23F480331360784B1B68774ADE
:101B7C0023F4802313601DE07B685B68B3F5A02F12
:101B8C000CD1724B1B68714A43F4802313606F4B6A
:101B9C001B686E4A43F4803313600BE06B4B1B687D
:101BAC006A4A23F480331360684B1B68674A23F43A
:101BBC00802313607B685B68002B13D0FFF7CEFC8F
:101BCC00386108E0FFF7CAFC02463B69D31A642B64
:101BDC0001D90323FAE15D4B1B6803F40033002B9E
:101BEC00F0D014E0FFF7BAFC386108E0FFF7B6FC60
:101BFC0002463B69D31A642B01D90323E6E1534B0C
:101C0C001B6803F40033002BF0D100E000BF7B68AD
:101C1C001B6803F00203002B63D04C4B5B6803F092
:101C2C000C03002B0BD0494B5B6803F00C03082B07
:101C3C001CD1464B5B6803F48033002B16D1434B0D
:101C4C001B6803F00203002B05D07B681B69012B7A
:101C5C0001D00123BAE13D4B1B6823F0F8027B68ED
:101C6C005B69DB00394913430B603AE07B681B6905
:101C7C00002B20D0364B01221A60FFF76FFC386125
:101C8C0008E0FFF76BFC02463B69D31A022B01D923
:101C9C0003239BE12D4B1B6803F00203002BF0D0B8
:101CAC002A4B1B6823F0F8027B685B69DB00274931
:101CBC0013430B6015E0264B00221A60FFF74EFC15
:101CCC00386108E0FFF74AFC02463B69D31A022B45
:101CDC0001D903237AE11D4B1B6803F00203002B8F
:101CEC00F0D17B681B6803F00803002B3AD07B68AB
:101CFC009B69002B19D0174B01221A60FFF72EFCA1
:101D0C00386108E0FFF72AFC02463B69D31A022B24
:101D1C0001D903235AE10D4B5B6A03F00203002B3C
:101D2C00F0D0012000F09AFA1CE00A4B00221A6055
:101D3C00FFF714FC38610FE0FFF710FC02463B691B
:101D4C00D31A022B08D9032340E100BF0010024034
:101D5C0000004242800442429E4B5B6A03F0020345
:101D6C00002BE9D17B681B6803F00403002B00F007
:101D7C00A6800023FB75974BDB6903F08053002B87
:101D8C000DD1944BDB69934A43F08053D361914B53
:101D9C00DB6903F08053BB60BB680123FB758E4B82
:101DAC001B6803F48073002B18D18B4B1B688A4A79
:101DBC0043F480731360FFF7D1FB386108E0FFF741
:101DCC00CDFB02463B69D31A642B01D90323FDE0FA
:101DDC00814B1B6803F48073002BF0D07B68DB68AD
:101DEC00012B06D17B4B1B6A7A4A43F00103136229
:101DFC002DE07B68DB68002B0CD1764B1B6A754A97
:101E0C0023F001031362734B1B6A724A23F0040321
:101E1C0013621CE07B68DB68052B0CD16D4B1B6AD5
:101E2C006C4A43F0040313626A4B1B6A694A43F021
:101E3C00010313620BE0674B1B6A664A23F0010334
:101E4C001362644B1B6A634A23F0040313627B68BE
:101E5C00DB68002B15D0FFF781FB38610AE0FFF738
:101E6C007DFB02463B69D31A41F28832934201D979
:101E7C000323ABE0574B1B6A03F00203002BEED09D
:101E8C0014E0FFF76BFB38610AE0FFF767FB0246D3
:101E9C003B69D31A41F28832934201D9032395E06E
:101EAC004C4B1B6A03F00203002BEED1FB7D012B84
:101EBC0005D1484BDB69474A23F08053D3617B68DB
:101ECC00DB69002B00F08180424B5B6803F00C0354
:101EDC00082B61D07B68DB69022B46D13F4B00227B
:101EEC001A60FFF73BFB386108E0FFF737FB02464F
:101EFC003B69D31A022B01D9032367E0354B1B68CE
:101F0C0003F00073002BF0D17B681B6AB3F5803FA4
:101F1C0008D1304B5B6823F400327B689B682D49F9
:101F2C0013434B602B4B5B6823F474127B68196A68
:101F3C007B685B6A0B43274913434B60274B012299
:101F4C001A60FFF70BFB386108E0FFF707FB02464E
:101F5C003B69D31A022B01D9032337E01D4B1B68B5
:101F6C0003F00073002BF0D02FE01C4B00221A6002
:101F7C00FFF7F4FA386108E0FFF7F0FA02463B6924
:101F8C00D31A022B01D9032320E0124B1B6803F058
:101F9C000073002BF0D118E07B68DB69012B01D1B9
:101FAC00012313E00B4B5B68FB60FB6803F480328E
:101FBC007B681B6A9A4206D1FB6803F470127B683B
:101FCC005B6A9A4201D0012300E0002318461837BF
:101FDC00BD4680BD001002400070004060004242CF
:101FEC0080B584B000AF786039607B68002B01D17C
:101FFC000123D0E06A4B1B6803F007033A689A424E
:10200C0010D9674B1B6823F0070265493B681343E3
:10201C000B60634B1B6803F007033A689A4201D0CC
:10202C000123B8E07B681B6803F00203002B20D06F
:10203C007B681B6803F00403002B05D0594B5B68CD
:10204C00584A43F4E06353607B681B6803F0080351
:10205C00002B05D0534B5B68524A43F460535360DA
:10206C00504B5B6823F0F0027B689B684D4913432F
:10207C004B607B681B6803F00103002B40D07B682E
:10208C005B68012B07D1474B1B6803F40033002B13
:10209C0015D101237FE07B685B68022B07D1414B94
:1020AC001B6803F00073002B09D1012373E03D4B37
:1020BC001B6803F00203002B01D101236BE0394BA9
:1020CC005B6823F003027B685B68364913434B6003
:1020DC00FFF744FAF8600AE0FFF740FA0246FB68A3
:1020EC00D31A41F28832934201D9032353E02D4B8A
:1020FC005B6803F00C027B685B689B009A42EBD137
:10210C00274B1B6803F007033A689A4210D2244B02
:10211C001B6823F0070222493B6813430B60204BDA
:10212C001B6803F007033A689A4201D0012332E09E
:10213C007B681B6803F00403002B08D0194B5B6809
:10214C0023F4E0627B68DB68164913434B607B68C1
:10215C001B6803F00803002B09D0124B5B6823F4B7
:10216C0060527B681B69DB000E4913434B6000F027
:10217C0021F802460B4B5B681B0903F00F030A495D
:10218C00CB5C22FA03F3094A1360094B1B6818460F
:10219C00FFF7A2F9002318461037BD4680BD00BFDB
:1021AC000020024000100240E42A00085C000020DD
:1021BC006000002080B487B000AF0023FB600023D8
:1021CC00BB6000237B6100237B6000233B611E4BC3
:1021DC005B68FB60FB6803F00C03042B02D0082B3C
:1021EC0003D027E0194B3B6127E0FB689B0C03F005
:1021FC000F03174AD35C7B60FB6803F48033002B1E
:10220C0010D0114B5B685B0C03F00103114AD35CDB
:10221C00BB607B680D4A02FB03F2BB68B2FBF3F3B5
:10222C007B6104E07B680C4A02FB03F37B617B69F6
:10223C003B6102E0054B3B6100BF3B6918461C3714
:10224C00BD4680BC704700BF0010024000127A00EF
:10225C00F42A0008042B000800093D0080B485B066
:10226C0000AF78600A4B1B680A4AA2FB03235B0A87
:10227C007A6802FB03F3FB6000BFFB685A1EFA602E
:10228C00002BF9D100BF00BF1437BD4680BC70478E
:10229C005C000020D34D621080B582B000AF786036
:1022AC007B68002B01D1012341E07B6893F83D3022
:1022BC00DBB2002B06D17B68002283F83C207868C7
:1022CC00FFF772F87B68022283F83D207B681A685E
:1022DC007B6804331946104600F06EFA7B680122C5
:1022EC0083F846207B68012283F83E207B6801221C
:1022FC0083F83F207B68012283F840207B68012211
:10230C0083F841207B68012283F842207B680122FC
:10231C0083F843207B68012283F844207B680122E8
:10232C0083F845207B68012283F83D200023184662
:10233C000837BD4680BD000080B485B000AF786022
:10234C007B6893F83D30DBB2012B01D0012335E0E3
:10235C007B68022283F83D207B681B68DA687B6807
:10236C001B6842F00102DA607B681B68164A9342D4
:10237C0009D07B681B68B3F1804F04D07B681B6865
:10238C00124A934211D17B681B689B6803F00703C8
:10239C00FB60FB68062B10D07B681B681A687B6897
:1023AC001B6842F001021A6007E07B681B681A6820
:1023BC007B681B6842F001021A6000231846143730
:1023CC00BD4680BC704700BF002C0140000400409B
:1023DC0080B582B000AF78607B681B681B6903F026
:1023EC000203022B22D17B681B68DB6803F002031B
:1023FC00022B1BD17B681B686FF002021A617B6891
:10240C0001221A777B681B689B6903F00303002B7E
:10241C0003D0786800F0B4F905E0786800F0A7F90B
:10242C00786800F0B6F97B6800221A777B681B6825
:10243C001B6903F00403042B22D17B681B68DB6847
:10244C0003F00403042B1BD17B681B686FF00402A0
:10245C001A617B6802221A777B681B689B6903F4FC
:10246C004073002B03D0786800F08AF905E0786897
:10247C0000F07DF9786800F08CF97B6800221A77FF
:10248C007B681B681B6903F00803082B22D17B684F
:10249C001B68DB6803F00803082B1BD17B681B68E7
:1024AC006FF008021A617B6804221A777B681B683C
:1024BC00DB6903F00303002B03D0786800F060F9AC
:1024CC0005E0786800F053F9786800F062F97B68F1
:1024DC0000221A777B681B681B6903F01003102B12
:1024EC0022D17B681B68DB6803F01003102B1BD117
:1024FC007B681B686FF010021A617B6808221A77E0
:10250C007B681B68DB6903F44073002B03D078688D
:10251C0000F036F905E0786800F029F9786800F0E9
:10252C0038F97B6800221A777B681B681B6903F0FB
:10253C000103012B0ED17B681B68DB6803F00103E0
:10254C00012B07D17B681B686FF001021A61786858
:10255C00FEF770FE7B681B681B6903F08003802B01
:10256C000ED17B681B68DB6803F08003802B07D1DE
:10257C007B681B686FF080021A61786800F06BFA58
:10258C007B681B681B6903F04003402B0ED17B68F2
:10259C001B68DB6803F04003402B07D17B681B688A
:1025AC006FF040021A61786800F0FCF87B681B68D9
:1025BC001B6903F02003202B0ED17B681B68DB68A2
:1025CC0003F02003202B07D17B681B686FF02002DF
:1025DC001A61786800F036FA00BF0837BD4680BD36
:1025EC0080B584B000AF786039600023FB737B68E2
:1025FC0093F83C30012B01D10223B4E07B6801221B
:10260C0083F83C207B68022283F83D207B681B68A2
:10261C009B68BB60BB6823F07703BB60BB6823F48B
:10262C007F43BB607B681B68BA689A603B681B6819
:10263C00B3F5005F3ED0B3F5005F00F28780B3F5D1
:10264C00805F00F08680B3F5805F7FD8702B1AD046
:10265C00702B7BD8602B50D0602B77D8502B3CD074
:10266C00502B73D8402B58D0402B6FD8302B64D0C4
:10267C00302B6BD8202B60D0202B67D8002B5CD054
:10268C00102B5AD062E07B6818683B6899683B68ED
:10269C005A683B68DB6800F05EF97B681B689B68D6
:1026AC00BB60BB6843F07703BB607B681B68BA6890
:1026BC009A604FE07B6818683B6899683B685A6879
:1026CC003B68DB6800F047F97B681B689A687B689D
:1026DC001B6842F480429A603CE07B6818683B6857
:1026EC0059683B68DB681A4600F0BEF87B681B68CB
:1026FC005021184600F015F92CE07B6818683B68EF
:10270C0059683B68DB681A4600F0DCF87B681B688C
:10271C006021184600F005F91CE07B6818683B68DE
:10272C0059683B68DB681A4600F09EF87B681B68AA
:10273C004021184600F0F5F80CE07B681A683B68FD
:10274C001B681946104600F0ECF803E00123FB73FC
:10275C0000E000BF7B68012283F83D207B680022EB
:10276C0083F83C20FB7B18461037BD4680BD80B4F7
:10277C0083B000AF786000BF0C37BD4680BC70479B
:10278C0080B483B000AF786000BF0C37BD4680BC0E
:10279C00704780B483B000AF786000BF0C37BD4683
:1027AC0080BC704780B483B000AF786000BF0C373A
:1027BC00BD4680BC7047000080B485B000AF786027
:1027CC0039607B681B68FB607B68254A934207D0A5
:1027DC007B68B3F1804F03D07B68224A934208D1C7
:1027EC00FB6823F07003FB603B685B68FA6813437B
:1027FC00FB607B681A4A934207D07B68B3F1804F29
:10280C0003D07B68174A934208D1FB6823F44073CA
:10281C00FB603B68DB68FA681343FB60FB6823F0E2
:10282C0080023B685B691343FB607B68FA681A6043
:10283C003B689A687B68DA623B681A687B689A62C4
:10284C007B68074A934203D13B681A697B681A6319
:10285C007B6801225A6100BF1437BD4680BC7047AB
:10286C00002C01400004004080B487B000AFF86039
:10287C00B9607A60FB681B6A7B61FB681B6A23F09A
:10288C000102FB681A62FB689B693B613B6923F0A0
:10289C00F0033B617B681B013A6913433B617B6925
:1028AC0023F00A037B617A69BB6813437B61FB6885
:1028BC003A699A61FB687A691A6200BF1C37BD4697
:1028CC0080BC704780B487B000AFF860B9607A60A4
:1028DC00FB681B6A7B61FB681B6A23F01002FB68B8
:1028EC001A62FB689B693B613B6923F470433B6153
:1028FC007B681B033A6913433B617B6923F0A0039C
:10290C007B61BB681B017A6913437B61FB683A6985
:10291C009A61FB687A691A6200BF1C37BD4680BC9D
:10292C00704780B485B000AF786039607B689B6875
:10293C00FB60FB6823F07003FB603A68FB68134391
:10294C0043F00703FB607B68FA689A6000BF14379A
:10295C00BD4680BC704780B487B000AFF860B960EA
:10296C007A603B60FB689B687B617B6923F47F43E7
:10297C007B613B681A027B681A43BB6813437A6914
:10298C0013437B61FB687A699A6000BF1C37BD46B4
:10299C0080BC704780B485B000AF786039607B68CC
:1029AC0093F83C30012B01D1022341E07B680122DA
:1029BC0083F83C207B68022283F83D207B681B68EF
:1029CC005B68FB607B681B689B68BB60FB6823F0E3
:1029DC007003FB603B681B68FA681343FB607B6801
:1029EC001B68FA685A607B681B68144A934209D0CA
:1029FC007B681B68B3F1804F04D07B681B68104A5E
:102A0C0093420CD1BB6823F08003BB603B685B68CE
:102A1C00BA681343BB607B681B68BA689A607B68B2
:102A2C00012283F83D207B68002283F83C200023A0
:102A3C0018461437BD4680BC704700BF002C0140BF
:102A4C000004004080B483B000AF786000BF0C3746
:102A5C00BD4680BC704780B483B000AF786000BFC7
:102A6C000C37BD4680BC704770B500260C4D0D4C24
:102A7C00641BA410A64209D100F022F800260A4DCE
:102A8C000A4C641BA410A64205D170BD55F8043B3A
:102A9C0098470136EEE755F8043B98470136F2E7C4
:102AAC00082B0008082B0008082B00080C2B00082A
:102ABC0003460244934200D1704703F8011BF9E727
:102ACC00F8B500BFF8BC08BC9E467047F8B500BF0F
:082ADC00F8BC08BC9E467047DF
:102AE40000000000000000000102030406070809BA
:102AF40002030405060708090A0B0C0D0E0F10103B
:042B040001020000CA
:042B0800310100088F
:042B0C000D010008AF
:102B100001000000010000000100000001000000B1
:102B200001000000010000000100000001000000A1
:102B30000100000001000000010000000100000091
:102B4000D0070000D0070000D007000001000000FF
:102B50000600000002000000040000000600000063
:102B600002000000040000000A0000000024F4003D
:082B700010000000010000004C
:040000050800146D6E
:00000001FF
