:020000040800F2
:100000000028002015170008A5160008AB160008E8
:10001000B1160008B7160008BD1600080000000061
:10002000000000000000000000000000C3160008EF
:10003000CF16000800000000DB160008E7160008D5
:100040005D1700085D1700085D1700085D170008C0
:100050005D1700085D1700085D1700085D170008B0
:100060005D1700085D1700085D1700085D170008A0
:100070005D1700085D1700085D1700085D17000890
:100080005D1700085D1700085D1700085D17000880
:100090005D1700085D1700085D1700085D17000870
:1000A0005D1700085D1700085D1700085D17000860
:1000B000F51600085D170008000000005D17000835
:1000C0005D17000800000000000000005D17000838
:1000D000000000005D1700085D1700080000000028
:1000E0005D1700085D1700085D170008000000009C
:1000F0000000000000000000000000000000000000
:0C01000000000000000000005FF808F1A3
:10010C0010B5054C237833B9044B13B10448AFF345
:10011C0000800123237010BD680000200000000047
:10012C00A42D000808B5034B1BB103490348AFF3DA
:10013C00008008BD000000006C000020A42D000809
:10014C0080B483B000AF00237B600CE00A4A7B686C
:10015C00002142F82310094A7B68002142F8231041
:10016C007B6801337B607B68022BEFDD00BF00BF37
:10017C000C37BD4680BC70478400002090000020E6
:10018C0080B483B000AF7860044A7B68012142F8E8
:10019C00231000BF0C37BD4680BC70478400002084
:1001AC0080B483B000AF7860044A7B68012142F8C8
:1001BC00231000BF0C37BD4680BC70479000002058
:1001CC0080B483B000AF7860094A7B6852F8233062
:1001DC00012B06D1064A7B68002142F8231001232B
:1001EC0000E0002318460C37BD4680BC704700BFAA
:1001FC008400002080B483B000AF7860094A7B682B
:10020C0052F82330012B06D1064A7B68002142F8B4
:10021C002310012300E0002318460C37BD4680BC98
:10022C00704700BF9000002080B582B000AF7860AE
:10023C00564A7B6852F8232055497B6841F82320A5
:10024C00544A7B6852F8232050497B6841F823209C
:10025C007B68022B1DD07B68022B24DC7B68002B77
:10026C0003D07B68012B0AD01DE04FF400514A48A3
:10027C0001F05AFD03461A46464B1A6014E04FF43F
:10028C008041454801F050FD03461A46414B5A60E7
:10029C000AE04FF40041404801F046FD03461A467F
:1002AC003C4B9A6000E000BF394A7B6852F823202F
:1002BC0036497B6851F823309A4262D1334A7B68C5
:1002CC0052F8232033497B6851F823309A4258D195
:1002DC00304A7B6852F8232030497B6851F8233030
:1002EC009A422CD02B4A7B6852F823202B497B68EE
:1002FC0041F82320274A7B6852F82330012B0DD17B
:10030C00274A7B6852F82330012B07D1244A7B689B
:10031C00002142F823107868FFF732FF1D4A7B68F2
:10032C0052F82330002B04D11D4A7B68012142F87E
:10033C0023101C4A7B68C82142F8231021E0194A7B
:10034C007B6852F823305A1E16497B6841F82320EB
:10035C00144A7B6852F82330002B12D10D4A7B686B
:10036C0052F82330002B07D10D4A7B68002142F84C
:10037C0023107868FFF714FF0A4A7B68C82142F8FB
:10038C00231000BF0837BD4680BD00BF0C00002005
:10039C00000000201800002000080140240000206C
:1003AC009C0000203000002080B582B000AF0023FC
:1003BC007B6005E07868FFF737FF7B6801337B6073
:1003CC007B68022BF6DD00BF00BF0837BD4680BD41
:1003DC0080B500AF094B1B68012B0DD14FF47A701F
:1003EC0001F074F8064B1B68013B054A1360054B82
:1003FC001B68013B034A136000BF80BDC000002096
:10040C00B4000020B800002080B400AF074B0122DC
:10041C001A60074B1B68074A1360074B1B68074A97
:10042C00136000BFBD4680BC704700BF3C0000207D
:10043C0040000020B400002054000020B800002030
:10044C0080B500AFFFF77CFE00224FF48071174897
:10045C0001F081FC01224FF40071144801F07BFC87
:10046C0001224FF48061114801F075FC00228021BB
:10047C000F4801F070FC01224FF480710C4801F020
:10048C006AFC01224FF40071094801F064FC094B2D
:10049C001B68094A1360074B1B68084A1360064B1C
:1004AC001B68074A136000BF80BD00BF00080140F5
:1004BC00000C014040000020A8000020B4000020E7
:1004CC00B800002080B500AF01224FF480711748AE
:1004DC0001F041FC00224FF40071144801F03BFC88
:1004EC0001224FF48061114801F035FC012280217A
:1004FC000F4801F030FC00224FF480710C4801F0E1
:10050C002AFC01224FF40071094801F024FC094B2C
:10051C001B68094A1360074B1B68084A1360064B9B
:10052C001B68074A136000BF80BD00BF0008014074
:10053C00000C014044000020A8000020B400002062
:10054C00B800002080B500AFFFF7FAFD01224FF490
:10055C008071174801F0FFFB01224FF40071144821
:10056C0001F0F9FB00224FF48061114801F0F3FB1C
:10057C00012280210F4801F0EEFB01224FF4807123
:10058C000C4801F0E8FB00224FF40071094801F01F
:10059C00E2FB094B1B68094A1360074B1B68084AAE
:1005AC001360064B1B68074A136000BF80BD00BF79
:1005BC0000080140000C014048000020A800002069
:1005CC00B4000020B800002080B500AF144B1B68AD
:1005DC00012B23D1FA2000F0ADFF4FF480711148AC
:1005EC0001F0D1FB01224FF400710E4801F0B3FB76
:1005FC0001224FF480610B4801F0ADFB80210A48C9
:10060C0001F0C1FB01224FF48071074801F0A3FBFC
:10061C0001224FF40071044801F09DFB00BF80BD26
:10062C00D000002000080140000C014080B500AF54
:10063C00144B1B68012B23D1FA2000F07BFF012205
:10064C004FF48071104801F086FB4FF400710E4896
:10065C0001F099FB01224FF480610B4801F07BFB08
:10066C0001228021094801F076FB4FF48071074884
:10067C0001F089FB01224FF40071044801F06BFB7F
:10068C0000BF80BDD000002000080140000C0140DC
:10069C0080B500AF144B1B68012B23D1FA2000F05E
:1006AC0049FF01224FF48071104801F054FB0122E4
:1006BC004FF400710D4801F04EFB4FF480610B4874
:1006CC0001F061FB01228021094801F044FB012269
:1006DC004FF48071064801F03EFB4FF40071044862
:1006EC0001F051FB00BF80BDD0000020000801408C
:1006FC00000C014080B400AF094B1B680133084A61
:10070C001360074B1B68632B02DD054B01221A603B
:10071C00034B1B68034A136000BFBD4680BC704787
:10072C00A8000020B800002080B500AF844B1B68E7
:10073C00042B00F2FA8001A252F823F05D070008A6
:10074C0077070008B507000857080008FD080008DF
:10075C007B4B01221A604FF47A7000F0B7FEFA203E
:10076C0000F0CEFEFFF750FEE8E0FFF731FE00F0A0
:10077C0089FC00F017FC0020FFF722FD0346002B3C
:10078C0006D10020FFF736FD0346002B00F0CF808A
:10079C006B4B02221A60FA2000F0B2FEFA2000F035
:1007AC00C9FEFFF74DFEC2E000F0FCFBFFF70CFFAB
:1007BC000020FFF705FD0346002B05D10020FFF7B5
:1007CC0019FD0346002B0AD05D4B03221A60FA2058
:1007DC0000F096FEFA2000F0ADFEFFF773FE01204C
:1007EC00FFF7EEFC0346002B05D10120FFF702FDBD
:1007FC000346002B01D0FFF77DFF0220FFF7E0FC42
:10080C000346002B06D10220FFF7F4FC0346002B15
:10081C0000F08F804B4B1B684B4A13604A4B1A6895
:10082C004A4B1B68D31A4A4A1360494B1B68002B6E
:10083C0006DA474B00221A60434B1B68434A13608D
:10084C00414B1B68434A136073E000F0ABFBFFF7AE
:10085C00EDFE0020FFF7B4FC0346002B05D1002071
:10086C00FFF7C8FC0346002B0AD0354B04221A6054
:10087C00FA2000F045FEFA2000F05CFEFFF762FE65
:10088C000120FFF79DFC0346002B05D10120FFF74B
:10089C00B1FC0346002B01D0FFF72CFF0220FFF721
:1008AC008FFC0346002B05D10220FFF7A3FC034667
:1008BC00002B40D0234B1B68274A1360274B1A6828
:1008CC00254B1B681344264A1360254B1B68632B6E
:1008DC0009DD234B63221A60214B1A681E4B1B68DF
:1008EC00D31A1E4A13601C4B1B681A4A136022E071
:1008FC0000F058FBFFF7CCFE0020FFF761FC03462D
:10090C00002B05D10020FFF775FC0346002B14D0FB
:10091C000B4B01221A604FF47A7000F0D7FDFA20CD
:10092C0000F0EEFDFFF770FD07E000BF06E000BF32
:10093C0004E000BF02E000BF00E000BF00BF80BDCC
:10094C00B0000020A8000020400000205000002033
:10095C0054000020B4000020440000204800002077
:10096C004C00002080B582B000AF78607B68092B0A
:10097C0000F2808101A252F823F000BFB1090008F7
:10098C00F9090008410A0008890A0008D10A000880
:10099C00190B0008610B0008A90B0008F10B0008EB
:1009AC00390C000800220221B54801F0D4F90022CC
:1009BC000421B34801F0CFF900220821B04801F01E
:1009CC00CAF900221021AE4801F0C5F900222021FD
:1009DC00AB4801F0C0F900224021A94801F0BBF955
:1009EC0001228021A64801F0B6F944E1012202213E
:1009FC00A34801F0B0F900220421A14801F0ABF9A1
:100A0C00002208219E4801F0A6F9012210219C48E1
:100A1C0001F0A1F901222021994801F09CF9012251
:100A2C004021974801F097F901228021944801F068
:100A3C0092F920E100220221914801F08CF9002268
:100A4C0004218F4801F087F9012208218C4801F01C
:100A5C0082F9002210218A4801F07DF90022202120
:100A6C00874801F078F901224021854801F073F99B
:100A7C0000228021824801F06EF9FCE00022022164
:100A8C007F4801F068F9002204217D4801F063F9E8
:100A9C00002208217A4801F05EF9002210217848E2
:100AAC0001F059F901222021754801F054F9012275
:100ABC004021734801F04FF900228021704801F069
:100ACC004AF9D8E0012202216D4801F044F90022D4
:100ADC0004216B4801F03FF900220821684801F01D
:100AEC003AF901221021664801F035F90122202142
:100AFC00634801F030F900224021614801F02BF9E4
:100B0C00002280215E4801F026F9B4E00022022187
:100B1C005B4801F020F901220421594801F01BF92E
:100B2C0000220821564801F016F9002210215448E1
:100B3C0001F011F901222021514801F00CF9002299
:100B4C0040214F4801F007F9002280214C4801F068
:100B5C0002F990E000220221494801F0FCF8012240
:100B6C000421474801F0F7F800220821444801F01D
:100B7C00F2F800221021424801F0EDF80022202169
:100B8C003F4801F0E8F8002240213D4801F0E3F82D
:100B9C00002280213A4801F0DEF86CE000220221AC
:100BAC00374801F0D8F800220421354801F0D3F879
:100BBC0000220821324801F0CEF8012210213048E1
:100BCC0001F0C9F8012220212D4801F0C4F80122BE
:100BDC0040212B4801F0BFF801228021284801F068
:100BEC00BAF848E000220221254801F0B4F80022AE
:100BFC000421234801F0AFF800220821204801F01D
:100C0C00AAF8002210211E4801F0A5F8002220218C
:100C1C001B4801F0A0F800224021194801F09BF874
:100C2C0000228021164801F096F824E000220221CF
:100C3C00134801F090F800220421114801F08BF8C0
:100C4C00002208210E4801F086F8002210210C48E1
:100C5C0001F081F801222021094801F07CF80022E2
:100C6C004021074801F077F800228021044801F068
:100C7C0072F800E000BF00BF0837BD4680BD00BF62
:100C8C000008014080B582B000AF78607B68092B0A
:100C9C0000F2808101A252F823F000BFD10C0008B1
:100CAC00190D0008610D0008A90D0008F10D0008D0
:100CBC00390E0008810E0008C90E0008110F00083B
:100CCC00590F000800220121B54801F044F8002218
:100CDC000221B34801F03FF800220421B04801F092
:100CEC003AF800220821AE4801F035F80022102114
:100CFC00AB4801F030F800222021A94801F02BF874
:100D0C0001224021A64801F026F844E101220121EC
:100D1C00A34801F020F800220221A14801F01BF8A1
:100D2C00002204219E4801F016F8012208219C485B
:100D3C0001F011F801221021994801F00CF8012260
:100D4C002021974801F007F801224021944801F036
:100D5C0002F820E100220121914800F0FCFF002262
:100D6C0002218F4800F0F7FF012204218C4800F08B
:100D7C00F2FF002208218A4800F0EDFF002210212A
:100D8C00874800F0E8FF01222021854800F0E3FFAE
:100D9C0000224021824800F0DEFFFCE0002201210D
:100DAC007F4800F0D8FF002202217D4800F0D3FFDD
:100DBC00002204217A4800F0CEFF00220821784856
:100DCC0000F0C9FF01221021754800F0C4FF012278
:100DDC002021734800F0BFFF00224021704800F032
:100DEC00BAFFD8E0012201216D4800F0B4FF0022C7
:100DFC0002216B4800F0AFFF00220421684800F08C
:100E0C00AAFF01220821664800F0A5FF012210214B
:100E1C00634800F0A0FF00222021614800F09BFFF6
:100E2C00002240215E4800F096FFB4E00022012130
:100E3C005B4800F090FF01220221594800F08BFF23
:100E4C0000220421564800F086FF00220821544855
:100E5C0000F081FF01221021514800F07CFF00229C
:100E6C0020214F4800F077FF002240214C4800F031
:100E7C0072FF90E000220121494800F06CFF012232
:100E8C000221474800F067FF00220421444800F08B
:100E9C0062FF00220821424800F05DFF0022102171
:100EAC003F4800F058FF002220213D4800F053FF3E
:100EBC00002240213A4800F04EFF6CE00022012154
:100ECC00374800F048FF00220221354800F043FF6C
:100EDC0000220421324800F03EFF01220821304854
:100EEC0000F039FF012210212D4800F034FF0122BF
:100EFC0020212B4800F02FFF01224021284800F030
:100F0C002AFF48E000220121254800F024FF00229E
:100F1C000221234800F01FFF00220421204800F08A
:100F2C001AFF002208211E4800F015FF0022102194
:100F3C001B4800F010FF00222021194800F00BFF85
:100F4C0000224021164800F006FF24E00022012177
:100F5C00134800F000FF00220221114800F0FBFEB4
:100F6C00002204210E4800F0F6FE002208210C4855
:100F7C0000F0F1FE01221021094800F0ECFE0022E5
:100F8C002021074800F0E7FE00224021044800F031
:100F9C00E2FE00E000BF00BF0837BD4680BD00BFC9
:100FAC00000C014080B500AF304B1B68012B5BD1AE
:100FBC002F4B1B68C3F101032D4A1360FA2000F07C
:100FCC009FFA2B4B1B68002B2CD100224FF4006195
:100FDC00284800F0C0FE01224FF48051254800F053
:100FEC00BAFE254B1A68254B83FB02139910D317B5
:100FFC00C91A0B469B000B445B00D11A0846FFF73D
:10100C00B1FC1F4B1A681D4B83FB02139910D317AD
:10101C00C91A0B469B000B445B00D11A0846FFF71C
:10102C0031FE21E001224FF40061124800F093FEE2
:10103C0000224FF480510F4800F08DFE0E4B1B68C0
:10104C000E4A82FB03129210DB17D31A1846FFF7D5
:10105C0089FC0B4B1B68094A82FB03129210DB17AD
:10106C00D31A1846FFF70EFE00BF80BDC800002043
:10107C00AC00002000080140B400002067666666E2
:10108C00B800002080B500AF7D4B1B68013B032BE3
:10109C0000F2EA8001A252F823F000BFB910000858
:1010AC0029110008991100080712000800224FF4BA
:1010BC008071744800F04FFE01224FF400717148AA
:1010CC0000F049FE01224FF480616E4800F043FEAF
:1010DC00012280216C4800F03EFE01224FF4807109
:1010EC00694800F038FE00224FF40071664800F0A9
:1010FC0032FE664B1B68002B00F3B880604B02225B
:10110C001A604FF47A7000F0E1F9614B1B68604A89
:10111C001360604B1B685D4A1360A7E000224FF41C
:10112C008071584800F017FE01224FF400715548A9
:10113C0000F011FE01224FF48061524800F00BFECA
:10114C0001228021504800F006FE00224FF48071ED
:10115C004D4800F000FE01224FF400714A4800F0A7
:10116C00FAFD4A4B1B68002B00F38280444B032290
:10117C001A604FF47A7000F0A9F9474B1B68444A87
:10118C001360464B1B68414A136071E001224FF417
:10119C0080713C4800F0DFFD01224FF400713948AA
:1011AC0000F0D9FD00224FF48061364800F0D3FDE9
:1011BC0000228021344800F0CEFD01224FF48071D2
:1011CC00314800F0C8FD01224FF400712E4800F0A8
:1011DC00C2FD2F4B1B68002B4CDC294B04221A60E0
:1011EC004FF47A7000F072F92D4B1B68284A13608B
:1011FC00264B1B68254A13603CE001224FF480719A
:10120C00204800F0A8FD00224FF400711D4800F0AA
:10121C00A2FD01224FF480611A4800F09CFD0022CF
:10122C008021194800F097FD01224FF48071164877
:10123C0000F091FD01224FF40071134800F08BFD7A
:10124C00134B1B68002B17DC0D4B01221A604FF45B
:10125C007A7000F03BF9134B1B680D4A1360124B6C
:10126C001B680A4A136007E000BF06E000BF04E0F9
:10127C0000BF02E000BF00E000BF00BF80BD00BFA8
:10128C003C00002000080140000C0140B800002088
:10129C00B400002050000020480000204C0000202A
:1012AC0044000020400000205400002080B500AF16
:1012BC0000F050FA00F00CF800F092F800F044F84E
:1012CC00024801F0A5F9FFF72FFAFCE7D400002043
:1012DC0080B590B000AF07F1180328220021184602
:1012EC0001F052FD3B1D00221A605A609A60DA60D0
:1012FC001A610223BB610123BB621023FB62002332
:10130C007B6307F11803184600F056FD0346002BCB
:10131C0001D000F0D5F80F237B600023BB600023C5
:10132C00FB6000233B6100237B613B1D00211846C1
:10133C0000F0C2FF0346002B01D000F0C1F800BF43
:10134C004037BD4680BD000080B586B000AF07F1C8
:10135C00080300221A605A609A60DA603B46002249
:10136C001A605A601D4B4FF080421A601B4B41F6BD
:10137C003F725A60194B00229A60184B0922DA60AE
:10138C00164B00221A61154B00229A61134801F08A
:10139C00EFF80346002B01D000F092F84FF4805385
:1013AC00BB6007F1080319460C4801F085FA0346A7
:1013BC00002B01D000F084F800233B6000237B60FD
:1013CC003B461946054801F051FC0346002B01D061
:1013DC0000F076F800BF1837BD4680BDD400002061
:1013EC0080B586B000AF07F1080300221A605A607E
:1013FC009A60DA60294B9B69284A43F00403936195
:10140C00264B9B6903F004037B607B68234B9B6931
:10141C00224A43F008039361204B9B6903F00803B5
:10142C003B603B68002241F6FE711D4800F093FCC6
:10143C00002240F2FF311B4800F08DFC41F6FE7398
:10144C00BB600123FB6000233B6102237B6107F13E
:10145C0008031946124800F0EDFA40F2FF33BB6066
:10146C000123FB6000233B6102237B6107F108032E
:10147C0019460C4800F0DEFA4FF46043BB600023C1
:10148C00FB6001233B6107F108031946044800F097
:10149C00D1FA00BF1837BD4680BD00BF0010024016
:1014AC0000080140000C014080B582B000AF7860AC
:1014BC0000F05AF8FEF778FF00BF0837BD4680BD34
:1014CC0080B400AF72B600BFFEE7000080B483B0FA
:1014DC0000AF7860074B1B687A6892FBF3F3064AFF
:1014EC001360064B00221A6000BF0C37BD4680BC4F
:1014FC00704700BF58000020BC000020C000002036
:10150C0080B483B000AF7860074B1B687A6892FB9D
:10151C00F3F3064A1360064B00221A6000BF0C3727
:10152C00BD4680BC704700BF58000020C40000209E
:10153C00C800002080B483B000AF7860074B1B68F4
:10154C007A6892FBF3F3064A1360064B00221A608A
:10155C0000BF0C37BD4680BC704700BF5800002050
:10156C00CC000020D000002080B400AF194B1B68C9
:10157C00002B0BDD174B1B68013B164A1360154BF8
:10158C001B68002B02DC144B01221A60134B1B68E6
:10159C00002B0BDD114B1B68013B104A13600F4BEA
:1015AC001B68002B02DC0E4B01221A600D4B1B68D2
:1015BC00002B0BDD0B4B1B68013B0A4A1360094BDC
:1015CC001B68002B02DC084B01221A6000BFBD46D1
:1015DC0080BC7047BC000020C0000020C40000206C
:1015EC00C8000020CC000020D000002080B485B0C2
:1015FC0000AF154B9B69144A43F001039361124BE6
:10160C009B6903F00103BB60BB680F4BDB690E4A9F
:10161C0043F08053D3610C4BDB6903F080537B6048
:10162C007B680A4B5B68FB60FB6823F0E063FB6044
:10163C00FB6843F08063FB60044AFB68536000BFA7
:10164C001437BD4680BC70470010024000000140BA
:10165C0080B584B000AF78607B681B68B3F1804FB5
:10166C0013D10C4BDB690B4A43F00103D361094BDB
:10167C00DB6903F00103FB60FB68002200211C20E6
:10168C0000F0A1F91C2000F0BAF900BF1037BD46DC
:10169C0080BD00BF0010024080B400AFFEE780B4F4
:1016AC0000AFFEE780B400AFFEE780B400AFFEE70A
:1016BC0080B400AFFEE780B400AF00BFBD4680BC75
:1016CC00704780B400AF00BFBD4680BC704780B48B
:1016DC0000AF00BFBD4680BC704780B500AF00F0C6
:1016EC007FF800BF80BD000080B500AF024800F05D
:1016FC00DBFF00BF80BD00BFD400002080B400AF72
:10170C0000BFBD4680BC7047FFF7F8FF0B480C4983
:10171C000C4A002302E0D458C4500433C4188C4241
:10172C00F9D3094A094C002301E013600432A242A8
:10173C00FBD301F005FBFFF7B9FD7047000000205B
:10174C0068000020E82D000868000020200100201F
:10175C00FEE7000080B500AF084B1B68074A43F05A
:10176C0010031360032000F023F90F2000F008F899
:10177C00FFF73CFF0023184680BD00BF002002404D
:10178C0080B582B000AF7860124B1A68124B1B7890
:10179C0019464FF47A73B3FBF1F3B2FBF3F318462B
:1017AC0000F03BF90346002B01D001230EE07B68CF
:1017BC000F2B0AD8002279684FF0FF3000F003F9A4
:1017CC00064A7B681360002300E0012318460837A3
:1017DC00BD4680BD5C00002064000020600000203D
:1017EC0080B400AF054B1B781A46054B1B6813449D
:1017FC00034A136000BFBD4680BC704764000020E4
:10180C001C01002080B400AF024B1B681846BD467B
:10181C0080BC70471C01002080B485B000AF78609C
:10182C007B6803F00703FB600C4BDB68BB60BA689A
:10183C004FF6FF031340BB60FB681A02BB681343EF
:10184C0043F0BF6343F40033BB60044ABB68D3600E
:10185C0000BF1437BD4680BC704700BF00ED00E0F0
:10186C0080B400AF044BDB681B0A03F00703184677
:10187C00BD4680BC704700BF00ED00E080B483B073
:10188C0000AF0346FB7197F90730002B0BDBFB799C
:10189C0003F01F02064997F907305B09012000FA93
:1018AC0002F241F8232000BF0C37BD4680BC7047C4
:1018BC0000E100E080B483B000AF03463960FB71F7
:1018CC0097F90730002B0ADB3B68DAB20C4997F921
:1018DC0007301201D2B20B4483F800230AE03B68B4
:1018EC00DAB20849FB7903F00F03043B1201D2B2C0
:1018FC000B441A7600BF0C37BD4680BC704700BF46
:10190C0000E100E000ED00E080B489B000AFF860C9
:10191C00B9607A60FB6803F00703FB61FB69C3F1F4
:10192C000703042B28BF0423BB61FB690433062B7C
:10193C0002D9FB69033B00E000237B614FF0FF32CF
:10194C00BB6902FA03F3DA43BB681A407B699A401D
:10195C004FF0FF317B6901FA03F3D9437B680B40ED
:10196C00134318462437BD4680BC704780B582B0FF
:10197C0000AF78607B68013BB3F1807F01D301231A
:10198C000FE00A4A7B68013B53600F214FF0FF3098
:10199C00FFF790FF054B00229A60044B07221A6058
:1019AC00002318460837BD4680BD00BF10E000E09C
:1019BC0080B582B000AF78607868FFF72DFF00BF6C
:1019CC000837BD4680BD80B586B000AF0346B96010
:1019DC007A60FB7300237B61FFF742FF78617A68C2
:1019EC00B9687869FFF790FF024697F90F301146F6
:1019FC001846FFF75FFF00BF1837BD4680BD80B5A6
:101A0C0082B000AF0346FB7197F907301846FFF719
:101A1C0035FF00BF0837BD4680BD80B582B000AF32
:101A2C0078607868FFF7A2FF034618460837BD4672
:101A3C0080BD000080B48BB000AF786039600023AB
:101A4C007B6200233B6248E101227B6A02FA03F3CA
:101A5C00FB613B681B68FA691340BB61BA69FB699F
:101A6C009A4240F037813B685B68A34A93425ED050
:101A7C00A14A934275D8A14A934258D09F4A9342A7
:101A8C006FD89F4A934252D09D4A934269D89D4A3F
:101A9C0093424CD09B4A934263D89B4A934246D084
:101AAC00994A93425DD8122B2AD8122B59D801A2ED
:101ABC0052F823F03B1B0008151B0008271B0008DD
:101ACC00691B00086F1B00086F1B00086F1B0008C8
:101ADC006F1B00086F1B00086F1B00086F1B0008B2
:101AEC006F1B00086F1B00086F1B00086F1B0008A2
:101AFC006F1B00086F1B00081D1B0008311B000822
:101B0C00824A934213D02CE03B68DB683B6229E0AD
:101B1C003B68DB6804333B6224E03B68DB680833DA
:101B2C003B621FE03B68DB680C333B621AE03B68AE
:101B3C009B68002B02D104233B6213E03B689B683B
:101B4C00012B05D108233B627B68FA691A6109E015
:101B5C0008233B627B68FA695A6103E000233B620D
:101B6C0000E000BFBB69FF2B01D87B6801E07B68FC
:101B7C0004337B61BB69FF2B02D87B6A9B0002E0BC
:101B8C007B6A083B9B003B617B691A680F213B69B0
:101B9C0001FA03F3DB431A40396A3B6901FA03F398
:101BAC001A437B691A603B685B6803F08053002B17
:101BBC0000F09080564B9B69554A43F001039361AA
:101BCC00534B9B6903F00103BB60BB68514A7B6AB2
:101BDC009B08023352F82330FB607B6A03F003034B
:101BEC009B000F2202FA03F3DB43FA681340FB60FD
:101BFC007B68494A93420DD07B68484A934207D090
:101C0C007B68474A934201D1022304E0032302E09C
:101C1C00012300E000237A6A02F003029200934051
:101C2C00FA681343FB603B497B6A9B080233FA68F2
:101C3C0041F823203B685B6803F48013002B06D02B
:101C4C00384B9A683749BB6913438B6006E0354BB8
:101C5C009A68BB69DB43334913408B603B685B6814
:101C6C0003F40013002B06D02E4BDA682D49BB6908
:101C7C001343CB6006E02B4BDA68BB69DB43294985
:101C8C001340CB603B685B6803F40033002B06D039
:101C9C00244B5A682349BB6913434B6006E0214B24
:101CAC005A68BB69DB431F4913404B603B685B6858
:101CBC0003F48033002B06D01A4B1A681949BB6900
:101CCC0013430B6006E0174B1A68BB69DB431549DD
:101CDC0013400B607B6A01337B623B681A687B6A3A
:101CEC0022FA03F3002B7FF4AFAE00BF00BF2C37FA
:101CFC00BD4680BC704700BF0000321000003110A0
:101D0C000000221000002110000012100000111021
:101D1C00001002400000014000080140000C01408E
:101D2C00001001400004014080B485B000AF786021
:101D3C000B467B807B689A687B881340002B02D013
:101D4C000123FB7301E00023FB73FB7B1846143764
:101D5C00BD4680BC704780B483B000AF78600B4642
:101D6C007B8013467B707B78002B03D07A887B6852
:101D7C001A6103E07B881A047B681A6100BF0C3778
:101D8C00BD4680BC704780B485B000AF78600B4610
:101D9C007B807B68DB68FB607A88FB6813401A04E5
:101DAC00FB68D9437B880B401A437B681A6100BFE0
:101DBC001437BD4680BC704780B586B000AF7860E4
:101DCC007B68002B01D101236CE27B681B6803F05C
:101DDC000103002B00F08780924B5B6803F00C032F
:101DEC00042B0CD08F4B5B6803F00C03082B12D127
:101DFC008C4B5B6803F48033B3F5803F0BD1894B7C
:101E0C001B6803F40033002B6CD07B685B68002BE1
:101E1C0068D1012346E27B685B68B3F5803F06D14D
:101E2C00804B1B687F4A43F4803313602EE07B6841
:101E3C005B68002B0CD17B4B1B687A4A23F48033F4
:101E4C001360784B1B68774A23F4802313601DE0E2
:101E5C007B685B68B3F5A02F0CD1724B1B68714A81
:101E6C0043F4802313606F4B1B686E4A43F480333A
:101E7C0013600BE06B4B1B686A4A23F480331360CE
:101E8C00684B1B68674A23F4802313607B685B688C
:101E9C00002B13D0FFF7B6FC386108E0FFF7B2FC5B
:101EAC0002463B69D31A642B01D90323FAE15D4B3B
:101EBC001B6803F40033002BF0D014E0FFF7A2FCF6
:101ECC00386108E0FFF79EFC02463B69D31A642B8D
:101EDC0001D90323E6E1534B1B6803F40033002BB9
:101EEC00F0D100E000BF7B681B6803F00203002BFD
:101EFC0063D04C4B5B6803F00C03002B0BD0494BAD
:101F0C005B6803F00C03082B1CD1464B5B6803F495
:101F1C008033002B16D1434B1B6803F00203002BBC
:101F2C0005D07B681B69012B01D00123BAE13D4B25
:101F3C001B6823F0F8027B685B69DB0039491343AB
:101F4C000B603AE07B681B69002B20D0364B0122DA
:101F5C001A60FFF757FC386108E0FFF753FC0246A4
:101F6C003B69D31A022B01D903239BE12D4B1B6830
:101F7C0003F00203002BF0D02A4B1B6823F0F8026D
:101F8C007B685B69DB00274913430B6015E0264B2C
:101F9C0000221A60FFF736FC386108E0FFF732FCCC
:101FAC0002463B69D31A022B01D903237AE11D4B5C
:101FBC001B6803F00203002BF0D17B681B6803F055
:101FCC000803002B3AD07B689B69002B19D0174B68
:101FDC0001221A60FFF716FC386108E0FFF712FCCB
:101FEC0002463B69D31A022B01D903235AE10D4B4C
:101FFC005B6A03F00203002BF0D0012000F09AFA88
:10200C001CE00A4B00221A60FFF7FCFB38610FE062
:10201C00FFF7F8FB02463B69D31A022B08D90323BE
:10202C0040E100BF001002400000424280044242E6
:10203C009E4B5B6A03F00203002BE9D17B681B68A3
:10204C0003F00403002B00F0A6800023FB75974BD4
:10205C00DB6903F08053002B0DD1944BDB69934A61
:10206C0043F08053D361914BDB6903F08053BB6029
:10207C00BB680123FB758E4B1B6803F48073002B2C
:10208C0018D18B4B1B688A4A43F480731360FFF79B
:10209C00B9FB386108E0FFF7B5FB02463B69D31A80
:1020AC00642B01D90323FDE0814B1B6803F480737F
:1020BC00002BF0D07B68DB68012B06D17B4B1B6AB5
:1020CC007A4A43F0010313622DE07B68DB68002B36
:1020DC000CD1764B1B6A754A23F001031362734BC8
:1020EC001B6A724A23F0040313621CE07B68DB68F2
:1020FC00052B0CD16D4B1B6A6C4A43F00403136225
:10210C006A4B1B6A694A43F0010313620BE0674B8D
:10211C001B6A664A23F001031362644B1B6A634A11
:10212C0023F0040313627B68DB68002B15D0FFF7E8
:10213C0069FB38610AE0FFF765FB02463B69D31A7D
:10214C0041F28832934201D90323ABE0574B1B6A0F
:10215C0003F00203002BEED014E0FFF753FB3861C1
:10216C000AE0FFF74FFB02463B69D31A41F2883273
:10217C00934201D9032395E04C4B1B6A03F00203F5
:10218C00002BEED1FB7D012B05D1484BDB69474A77
:10219C0023F08053D3617B68DB69002B00F08180D6
:1021AC00424B5B6803F00C03082B61D07B68DB6946
:1021BC00022B46D13F4B00221A60FFF723FB3861FC
:1021CC0008E0FFF71FFB02463B69D31A022B01D92B
:1021DC00032367E0354B1B6803F00073002BF0D131
:1021EC007B681B6AB3F5803F08D1304B5B6823F4E6
:1021FC0000327B689B682D4913434B602B4B5B680B
:10220C0023F474127B68196A7B685B6A0B43274959
:10221C0013434B60274B01221A60FFF7F3FA386126
:10222C0008E0FFF7EFFA02463B69D31A022B01D9FB
:10223C00032337E01D4B1B6803F00073002BF0D019
:10224C002FE01C4B00221A60FFF7DCFA386108E023
:10225C00FFF7D8FA02463B69D31A022B01D90323A4
:10226C0020E0124B1B6803F00073002BF0D118E038
:10227C007B68DB69012B01D1012313E00B4B5B68FD
:10228C00FB60FB6803F480327B681B6A9A4206D1C0
:10229C00FB6803F470127B685B6A9A4201D00123DD
:1022AC0000E0002318461837BD4680BD00100240E0
:1022BC00007000406000424280B584B000AF78608E
:1022CC0039607B68002B01D10123D0E06A4B1B687D
:1022DC0003F007033A689A4210D9674B1B6823F046
:1022EC00070265493B6813430B60634B1B6803F0A3
:1022FC0007033A689A4201D00123B8E07B681B6857
:10230C0003F00203002B20D07B681B6803F004034E
:10231C00002B05D0594B5B68584A43F4E06353607B
:10232C007B681B6803F00803002B05D0534B5B68DC
:10233C00524A43F460535360504B5B6823F0F002F5
:10234C007B689B684D4913434B607B681B6803F0AB
:10235C000103002B40D07B685B68012B07D1474BF6
:10236C001B6803F40033002B15D101237FE07B683D
:10237C005B68022B07D1414B1B6803F00073002BE9
:10238C0009D1012373E03D4B1B6803F00203002BC2
:10239C0001D101236BE0394B5B6823F003027B68AE
:1023AC005B68364913434B60FFF72CFAF8600AE080
:1023BC00FFF728FA0246FB68D31A41F2883293429F
:1023CC0001D9032353E02D4B5B6803F00C027B68AF
:1023DC005B689B009A42EBD1274B1B6803F0070309
:1023EC003A689A4210D2244B1B6823F00702224908
:1023FC003B6813430B60204B1B6803F007033A68E0
:10240C009A4201D0012332E07B681B6803F004037D
:10241C00002B08D0194B5B6823F4E0627B68DB6807
:10242C00164913434B607B681B6803F00803002BB1
:10243C0009D0124B5B6823F460527B681B69DB008C
:10244C000E4913434B6000F021F802460B4B5B68BE
:10245C001B0903F00F030A49CB5C22FA03F3094A68
:10246C001360094B1B681846FFF78AF900231846BE
:10247C001037BD4680BD00BF002002400010024056
:10248C00BC2D00085C0000206000002080B487B0E8
:10249C0000AF0023FB600023BB6000237B610023A3
:1024AC007B6000233B611E4B5B68FB60FB6803F0A9
:1024BC000C03042B02D0082B03D027E0194B3B61F3
:1024CC0027E0FB689B0C03F00F03174AD35C7B607F
:1024DC00FB6803F48033002B10D0114B5B685B0C52
:1024EC0003F00103114AD35CBB607B680D4A02FB0D
:1024FC0003F2BB68B2FBF3F37B6104E07B680C4A2C
:10250C0002FB03F37B617B693B6102E0054B3B61A2
:10251C0000BF3B6918461C37BD4680BC704700BFE6
:10252C000010024000127A00CC2D0008DC2D0008AF
:10253C0000093D0080B485B000AF78600A4B1B6881
:10254C000A4AA2FB03235B0A7A6802FB03F3FB60D3
:10255C0000BFFB685A1EFA60002BF9D100BF00BF08
:10256C001437BD4680BC70475C000020D34D621010
:10257C0080B582B000AF78607B68002B01D101235D
:10258C0041E07B6893F83D30DBB2002B06D17B68D1
:10259C00002283F83C207868FFF75AF87B68022207
:1025AC0083F83D207B681A687B6804331946104613
:1025BC0000F06EFA7B68012283F846207B680122CA
:1025CC0083F83E207B68012283F83F207B68012240
:1025DC0083F840207B68012283F841207B6801222C
:1025EC0083F842207B68012283F843207B68012218
:1025FC0083F844207B68012283F845207B68012204
:10260C0083F83D20002318460837BD4680BD0000E6
:10261C0080B485B000AF78607B6893F83D30DBB256
:10262C00012B01D0012335E07B68022283F83D2089
:10263C007B681B68DA687B681B6842F00102DA6011
:10264C007B681B68164A934209D07B681B68B3F100
:10265C00804F04D07B681B68124A934211D17B686F
:10266C001B689B6803F00703FB60FB68062B10D00C
:10267C007B681B681A687B681B6842F001021A6051
:10268C0007E07B681B681A687B681B6842F00102D4
:10269C001A60002318461437BD4680BC704700BF33
:1026AC00002C01400004004080B582B000AF78607F
:1026BC007B681B681B6903F00203022B22D17B6829
:1026CC001B68DB6803F00203022B1BD17B681B68C1
:1026DC006FF002021A617B6801221A777B681B6813
:1026EC009B6903F00303002B03D0786800F0B4F966
:1026FC0005E0786800F0A7F9786800F0B6F97B6817
:10270C0000221A777B681B681B6903F00403042BF7
:10271C0022D17B681B68DB6803F00403042B1BD1FC
:10272C007B681B686FF004021A617B6802221A77BF
:10273C007B681B689B6903F44073002B03D078689B
:10274C0000F08AF905E0786800F07DF9786800F00F
:10275C008CF97B6800221A777B681B681B6903F075
:10276C000803082B22D17B681B68DB6803F0080385
:10277C00082B1BD17B681B686FF008021A617B6801
:10278C0004221A777B681B68DB6903F00303002BB8
:10279C0003D0786800F060F905E0786800F053F930
:1027AC00786800F062F97B6800221A777B681B68F6
:1027BC001B6903F01003102B22D17B681B68DB68AC
:1027CC0003F01003102B1BD17B681B686FF01002F9
:1027DC001A617B6808221A777B681B68DB6903F433
:1027EC004073002B03D0786800F036F905E0786868
:1027FC0000F029F9786800F038F97B6800221A7724
:10280C007B681B681B6903F00103012B0ED17B68ED
:10281C001B68DB6803F00103012B07D17B681B6885
:10282C006FF001021A617868FEF73EFE7B681B6848
:10283C001B6903F08003802B0ED17B681B68DB685F
:10284C0003F08003802B07D17B681B686FF080023C
:10285C001A61786800F06BFA7B681B681B6903F0DF
:10286C004003402B0ED17B681B68DB6803F04003F0
:10287C00402B07D17B681B686FF040021A617868A7
:10288C0000F0FCF87B681B681B6903F02003202B0D
:10289C000ED17B681B68DB6803F02003202B07D16B
:1028AC007B681B686FF020021A61786800F036FABA
:1028BC0000BF0837BD4680BD80B584B000AF7860DE
:1028CC0039600023FB737B6893F83C30012B01D1FA
:1028DC000223B4E07B68012283F83C207B6802224F
:1028EC0083F83D207B681B689B68BB60BB6823F04A
:1028FC007703BB60BB6823F47F43BB607B681B68BA
:10290C00BA689A603B681B68B3F5005F3ED0B3F5BC
:10291C00005F00F28780B3F5805F00F08680B3F52E
:10292C00805F7FD8702B1AD0702B7BD8602B50D047
:10293C00602B77D8502B3CD0502B73D8402B58D0D1
:10294C00402B6FD8302B64D0302B6BD8202B60D021
:10295C00202B67D8002B5CD0102B5AD062E07B6800
:10296C0018683B6899683B685A683B68DB6800F0FC
:10297C005EF97B681B689B68BB60BB6843F07703A0
:10298C00BB607B681B68BA689A604FE07B6818680C
:10299C003B6899683B685A683B68DB6800F047F90C
:1029AC007B681B689A687B681B6842F480429A605B
:1029BC003CE07B6818683B6859683B68DB681A46E2
:1029CC0000F0BEF87B681B685021184600F015F922
:1029DC002CE07B6818683B6859683B68DB681A46D2
:1029EC0000F0DCF87B681B686021184600F005F9E4
:1029FC001CE07B6818683B6859683B68DB681A46C2
:102A0C0000F09EF87B681B684021184600F0F5F832
:102A1C000CE07B681A683B681B681946104600F08E
:102A2C00ECF803E00123FB7300E000BF7B6801229C
:102A3C0083F83D207B68002283F83C20FB7B184602
:102A4C001037BD4680BD80B483B000AF786000BF46
:102A5C000C37BD4680BC704780B483B000AF786043
:102A6C0000BF0C37BD4680BC704780B483B000AF4C
:102A7C00786000BF0C37BD4680BC704780B483B013
:102A8C0000AF786000BF0C37BD4680BC70470000BB
:102A9C0080B485B000AF786039607B681B68FB60E0
:102AAC007B68254A934207D07B68B3F1804F03D0F3
:102ABC007B68224A934208D1FB6823F07003FB60C9
:102ACC003B685B68FA681343FB607B681A4A934265
:102ADC0007D07B68B3F1804F03D07B68174A9342D1
:102AEC0008D1FB6823F44073FB603B68DB68FA6831
:102AFC001343FB60FB6823F080023B685B69134364
:102B0C00FB607B68FA681A603B689A687B68DA62DB
:102B1C003B681A687B689A627B68074A934203D1C8
:102B2C003B681A697B681A637B6801225A6100BF93
:102B3C001437BD4680BC7047002C01400004004097
:102B4C0080B487B000AFF860B9607A60FB681B6A2C
:102B5C007B61FB681B6A23F00102FB681A62FB684D
:102B6C009B693B613B6923F0F0033B617B681B0174
:102B7C003A6913433B617B6923F00A037B617A69F1
:102B8C00BB6813437B61FB683A699A61FB687A699D
:102B9C001A6200BF1C37BD4680BC704780B487B03A
:102BAC0000AFF860B9607A60FB681B6A7B61FB68F8
:102BBC001B6A23F01002FB681A62FB689B693B617D
:102BCC003B6923F470433B617B681B033A691343F5
:102BDC003B617B6923F0A0037B61BB681B017A69B5
:102BEC0013437B61FB683A699A61FB687A691A62E4
:102BFC0000BF1C37BD4680BC704780B485B000AFA9
:102C0C00786039607B689B68FB60FB6823F070031D
:102C1C00FB603A68FB68134343F00703FB607B6877
:102C2C00FA689A6000BF1437BD4680BC704780B408
:102C3C0087B000AFF860B9607A603B60FB689B6856
:102C4C007B617B6923F47F437B613B681A027B6861
:102C5C001A43BB6813437A6913437B61FB687A6937
:102C6C009A6000BF1C37BD4680BC704780B485B0ED
:102C7C0000AF786039607B6893F83C30012B01D150
:102C8C00022341E07B68012283F83C207B6802220E
:102C9C0083F83D207B681B685B68FB607B681B6866
:102CAC009B68BB60FB6823F07003FB603B681B6890
:102CBC00FA681343FB607B681B68FA685A607B6890
:102CCC001B68144A934209D07B681B68B3F1804F90
:102CDC0004D07B681B68104A93420CD1BB6823F06C
:102CEC008003BB603B685B68BA681343BB607B685E
:102CFC001B68BA689A607B68012283F83D207B6868
:102D0C00002283F83C20002318461437BD4680BCB3
:102D1C00704700BF002C01400004004080B483B019
:102D2C0000AF786000BF0C37BD4680BC704780B4E4
:102D3C0083B000AF786000BF0C37BD4680BC7047D5
:102D4C0070B500260C4D0D4C641BA410A64209D185
:102D5C0000F022F800260A4D0A4C641BA410A6426F
:102D6C0005D170BD55F8043B98470136EEE755F890
:102D7C00043B98470136F2E7E02D0008E02D0008EF
:102D8C00E02D0008E42D000803460244934200D1D4
:102D9C00704703F8011BF9E7F8B500BFF8BC08BC95
:102DAC009E467047F8B500BFF8BC08BC9E467047FD
:102DBC0000000000000000000102030406070809DF
:102DCC0002030405060708090A0B0C0D0E0F101060
:042DDC0001020000F0
:042DE00031010008B5
:042DE4000D010008D5
:102DE80001000000010000000100000001000000D7
:102DF80001000000010000000100000001000000C7
:102E080001000000010000000100000001000000B6
:102E1800D0070000D0070000D00700000100000024
:102E28000600000002000000040000000600000088
:102E380002000000040000000A0000000024F40062
:082E4800100000000100000071
:0400000508001715C3
:00000001FF
