:020000040800F2
:1000000000280020AD1900083D1900084319000818
:10001000491900084F190008551900080000000090
:100020000000000000000000000000005B19000854
:100030006719000800000000731900087F19000804
:10004000F5190008F5190008F5190008F519000858
:10005000F5190008F5190008F5190008F519000848
:10006000F5190008F5190008F5190008F519000838
:10007000F5190008F5190008F5190008F519000828
:10008000F5190008F5190008F5190008F519000818
:10009000F5190008F5190008F5190008F519000808
:1000A000F5190008F5190008F5190008F5190008F8
:1000B0008D190008F519000800000000F519000866
:1000C000F51900080000000000000000F519000804
:1000D00000000000F5190008F519000800000000F4
:1000E000F5190008F5190008F519000800000000CE
:1000F0000000000000000000000000000000000000
:0C01000000000000000000005FF808F1A3
:10010C0010B5054C237833B9044B13B10448AFF345
:10011C0000800123237010BD680000200000000047
:10012C003C30000808B5034B1BB103490348AFF33F
:10013C00008008BD000000006C0000203C3000086E
:10014C0080B483B000AF00237B600CE00A4A7B686C
:10015C00002142F82310094A7B68002142F8231041
:10016C007B6801337B607B68022BEFDD00BF00BF37
:10017C000C37BD4680BC70478400002090000020E6
:10018C0080B483B000AF7860044A7B68012142F8E8
:10019C00231000BF0C37BD4680BC70478400002084
:1001AC0080B483B000AF7860044A7B68012142F8C8
:1001BC00231000BF0C37BD4680BC70479000002058
:1001CC0080B483B000AF7860094A7B6852F8233062
:1001DC00012B06D1064A7B68002142F8231001232B
:1001EC0000E0002318460C37BD4680BC704700BFAA
:1001FC008400002080B483B000AF7860094A7B682B
:10020C0052F82330012B06D1064A7B68002142F8B4
:10021C002310012300E0002318460C37BD4680BC98
:10022C00704700BF9000002080B582B000AF7860AE
:10023C00564A7B6852F8232055497B6841F82320A5
:10024C00544A7B6852F8232050497B6841F823209C
:10025C007B68022B1DD07B68022B24DC7B68002B77
:10026C0003D07B68012B0AD01DE04FF400514A48A3
:10027C0001F0A6FE03461A46464B1A6014E04FF4F2
:10028C008041454801F09CFE03461A46414B5A609A
:10029C000AE04FF40041404801F092FE03461A4632
:1002AC003C4B9A6000E000BF394A7B6852F823202F
:1002BC0036497B6851F823309A4262D1334A7B68C5
:1002CC0052F8232033497B6851F823309A4258D195
:1002DC00304A7B6852F8232030497B6851F8233030
:1002EC009A422CD02B4A7B6852F823202B497B68EE
:1002FC0041F82320274A7B6852F82330012B0DD17B
:10030C00274A7B6852F82330012B07D1244A7B689B
:10031C00002142F823107868FFF732FF1D4A7B68F2
:10032C0052F82330002B04D11D4A7B68012142F87E
:10033C0023101C4A7B68C82142F8231021E0194A7B
:10034C007B6852F823305A1E16497B6841F82320EB
:10035C00144A7B6852F82330002B12D10D4A7B686B
:10036C0052F82330002B07D10D4A7B68002142F84C
:10037C0023107868FFF714FF0A4A7B68C82142F8FB
:10038C00231000BF0837BD4680BD00BF0C00002005
:10039C00000000201800002000080140240000206C
:1003AC009C0000203000002080B582B000AF0023FC
:1003BC007B6005E07868FFF737FF7B6801337B6073
:1003CC007B68022BF6DD00BF00BF0837BD4680BD41
:1003DC0080B400AF074B01221A60074B1B68074A19
:1003EC001360074B1B68074A136000BFBD4680BCF7
:1003FC00704700BF3C00002040000020C4000020DB
:10040C0054000020C800002080B500AFFFF798FE14
:10041C0000F06AFF064B1B68064A1360044B1B680E
:10042C00054A1360034B1B68044A136000BF80BD70
:10043C0040000020A8000020C4000020C8000020BC
:10044C0080B500AFFFF77CFE00F07AFF064B1B680F
:10045C00064A1360044B1B68054A1360034B1B6868
:10046C00044A136000BF80BD44000020A800002097
:10047C00C4000020C800002080B500AFFFF760FE6C
:10048C0000F08AFF064B1B68064A1360044B1B687E
:10049C00054A1360034B1B68044A136000BF80BD00
:1004AC0048000020A8000020C4000020C800002044
:1004BC0080B500AF01F01AF800BF80BD80B400AF6A
:1004CC00094B1B680133084A1360074B1B68632BED
:1004DC0002DD054B01221A60034B1B68034A1360B3
:1004EC0000BFBD4680BC7047A8000020C80000209B
:1004FC0080B500AFB24B1B68052B00F28E8101A2B8
:10050C0052F823F02905000843050008B905000836
:10051C003F060008C506000847070008A84B012243
:10052C001A604FF47A7001F01DF9FA2001F034F9D9
:10053C00FFF74EFF7CE1A34B1B68012B0DD14FF451
:10054C007A7001F00FF9A04B1B68013B9E4A1360B7
:10055C009E4B1B68013B9D4A136000F0EFF900F0C5
:10056C006BF99B4B1B689B4A13609B4B1B689B4A0C
:10057C0013609B4B1B689B4A13600020FFF720FE07
:10058C000346002B06D10020FFF734FE0346002B58
:10059C0000F045818A4B02221A60FA2001F0FCF827
:1005AC00FA2001F013F9FFF72FFF38E100F044F9BE
:1005BC0000F04CFA0020FFF703FE0346002B05D198
:1005CC000020FFF717FE0346002B0AD07C4B0322BA
:1005DC001A60FA2001F0E0F8FA2001F0F7F8FFF7C2
:1005EC002FFF0120FFF7ECFD0346002B05D1012066
:1005FC00FFF700FE0346002B01D0FFF75FFF022040
:10060C00FFF7DEFD0346002B06D10220FFF7F2FDBB
:10061C000346002B00F00581734B1B686C4A13607A
:10062C006B4B1B68714A1360694B1B68664A1360FD
:10063C00F7E000F001F900F019FA0020FFF7C0FD17
:10064C000346002B05D10020FFF7D4FD0346002BF9
:10065C000AD05B4B04221A60FA2001F09DF8FA20B4
:10066C0001F0B4F8FFF708FF0120FFF7A9FD0346DE
:10067C00002B05D10120FFF7BDFD0346002B01D057
:10068C00FFF71CFF0220FFF79BFD0346002B06D152
:10069C000220FFF7AFFD0346002B00F0C480524B45
:1006AC001B684D4A13604C4B1B68514A13604A4BF4
:1006BC001B68454A1360B6E000F0BEF800F0E6F99E
:1006CC000020FFF77DFD0346002B05D10020FFF72E
:1006DC0091FD0346002B08D0394B05221A604FF4CC
:1006EC00FA6001F073F8FFF7E3FE0120FFF768FDF5
:1006FC000346002B05D10120FFF77CFD0346002BA0
:10070C0001D0FFF7DBFE0220FFF75AFD0346002B5A
:10071C0006D10220FFF76EFD0346002B00F085800A
:10072C00314B1B682E4A13602D4B1B68314A1360EA
:10073C002B4B1B68244A136077E0274B1A68284B15
:10074C001B681A44224B1B689A4202D02A4B012286
:10075C001A60294B1B68012B52D11E4B1B681C4A7B
:10076C0013601E4B1B681C4A13601E4B1B681C4AF3
:10077C001360174B1B681D4A1360174B1B681C4AF0
:10078C001360174B1B681B4A136000F0C5F800F090
:10079C00ADFC0020FFF714FD0346002B09D100200F
:1007AC00FFF728FD0346002B03D1144B1B68012BCC
:1007BC003DD1114B00221A60642001F007F836E09D
:1007CC00C0000020D0000020C4000020C800002081
:1007DC0040000020AC00002044000020B0000020AD
:1007EC0048000020B4000020A80000204C0000208D
:1007FC005000002054000020B8000020E000002031
:10080C000C4B01221A604FF47A7000F0ABFFFA2007
:10081C0000F0C2FFFFF7DCFD09E000BF08E000BFFD
:10082C0006E000BF04E000BF02E000BF00E000BF34
:10083C0000BF80BDC000002080B500AF304B1B68EE
:10084C00012B5BD12F4B1B68C3F101032D4A1360A5
:10085C00FA2000F0A1FF2B4B1B68002B2CD100229F
:10086C004FF40061284801F0C2FB01224FF4805183
:10087C00254801F0BCFB254B1A68254B83FB021362
:10088C009910D317C91A0B469B000B445B00D11A65
:10089C00084600F00BF91F4B1A681D4B83FB021323
:1008AC009910D317C91A0B469B000B445B00D11A45
:1008BC00084600F08BFA21E001224FF40061124847
:1008CC0001F095FB00224FF480510F4801F08FFB93
:1008DC000E4B1B680E4A82FB03129210DB17D31AC5
:1008EC00184600F0E3F80B4B1B68094A82FB031215
:1008FC009210DB17D31A184600F068FA00BF80BDBF
:10090C00D8000020BC00002000080140C4000020DA
:10091C0067666666C800002080B500AF00224FF401
:10092C000061054801F063FB01224FF4805102483D
:10093C0001F05DFB00BF80BD0008014080B500AF39
:10094C00394B1B68013B032B62D801A252F823F0F0
:10095C006D09000899090008C5090008F10900088B
:10096C0000F012FC314B1B68002B53DC2E4B022287
:10097C001A604FF47A7000F0F5FE2D4B1B682C4A70
:10098C0013602C4B1B68294A136043E000F028FCD1
:10099C00264B1B68002B3FDC234B03221A604FF4C1
:1009AC007A7000F0DFFE244B1B68214A1360234B46
:1009BC001B681E4A13602FE000F03EFC1C4B1B68AA
:1009CC00002B2BDC184B04221A604FF47A7000F0C9
:1009DC00C9FE1B4B1B68164A1360144B1B68134A49
:1009EC0013601BE000F054FC114B1B68002B17DC50
:1009FC000D4B01221A604FF47A7000F0B3FE114BCC
:100A0C001B680B4A1360104B1B68084A136007E005
:100A1C0000BF06E000BF04E000BF02E000BF00E042
:100A2C0000BF00BF80BD00BF3C000020C8000020FC
:100A3C00C400002050000020480000204C00002082
:100A4C0044000020400000205400002080B500AF7E
:100A5C00054B1B68012B04D1FA2000F0B7FE00F007
:100A6C00C7FC00BF80BD00BFE000002080B500AF18
:100A7C00054B1B68012B04D1FA2000F0A7FE00F0F7
:100A8C00E1FC00BF80BD00BFE000002080B500AFDE
:100A9C00054B1B68012B04D1FA2000F097FE00F0E7
:100AAC00FBFC00BF80BD00BFE000002080B582B021
:100ABC0000AF78607B68092B00F2808101A252F8AC
:100ACC0023F000BFF90A0008410B0008890B00084D
:100ADC00D10B0008190C0008610C0008A90C0008C7
:100AEC00F10C0008390D0008810D000800220221CC
:100AFC00B54801F07CFA00220421B34801F077FAE2
:100B0C0000220821B04801F072FA00221021AE48F0
:100B1C0001F06DFA00222021AB4801F068FA0022A6
:100B2C004021A94801F063FA01228021A64801F076
:100B3C005EFA44E101220221A34801F058FA002296
:100B4C000421A14801F053FA002208219E4801F02B
:100B5C004EFA012210219C4801F049FA0122202171
:100B6C00994801F044FA01224021974801F03FFADC
:100B7C0001228021944801F03AFA20E1002202215E
:100B8C00914801F034FA002204218F4801F02FFA29
:100B9C00012208218C4801F02AFA002210218A48EF
:100BAC0001F025FA00222021874801F020FA0122C9
:100BBC004021854801F01BFA00228021824801F077
:100BCC0016FAFCE0002202217F4801F010FA002204
:100BDC0004217D4801F00BFA002208217A4801F02B
:100BEC0006FA00221021784801F001FA0122202196
:100BFC00754801F0FCF901224021734801F0F7F926
:100C0C0000228021704801F0F2F9D8E00122022183
:100C1C006D4801F0ECF9002204216B4801F0E7F972
:100C2C0000220821684801F0E2F9012210216648EF
:100C3C0001F0DDF901222021634801F0D8F90022EE
:100C4C004021614801F0D3F9002280215E4801F077
:100C5C00CEF9B4E0002202215B4801F0C8F9012270
:100C6C000421594801F0C3F900220821564801F02B
:100C7C00BEF900221021544801F0B9F901222021BB
:100C8C00514801F0B4F9002240214F4801F0AFF96E
:100C9C00002280214C4801F0AAF990E000220221A8
:100CAC00494801F0A4F901220421474801F09FF9B9
:100CBC0000220821444801F09AF9002210214248F0
:100CCC0001F095F9002220213F4801F090F9002213
:100CDC0040213D4801F08BF9002280213A4801F077
:100CEC0086F96CE000220221374801F080F90022DD
:100CFC000421354801F07BF900220821324801F02B
:100D0C0076F901221021304801F071F901222021DD
:100D1C002D4801F06CF9012240212B4801F067F9B4
:100D2C0001228021284801F062F948E000220221CA
:100D3C00254801F05CF900220421234801F057F901
:100D4C0000220821204801F052F9002210211E48EF
:100D5C0001F04DF9002220211B4801F048F9002236
:100D6C004021194801F043F900228021164801F076
:100D7C003EF924E000220221134801F038F9002248
:100D8C000421114801F033F9002208210E4801F02A
:100D9C002EF9002210210C4801F029F90122202102
:100DAC00094801F024F900224021074801F01FF9FD
:100DBC0000228021044801F01AF900E000BF00BFB6
:100DCC000837BD4680BD00BF0008014080B582B029
:100DDC0000AF78607B68092B00F2808101A252F889
:100DEC0023F000BF190E0008610E0008A90E0008C0
:100DFC00F10E0008390F0008810F0008C90F000818
:100E0C001110000859100008A1100008002201213F
:100E1C00B54801F0ECF800220221B34801F0E7F8E4
:100E2C0000220421B04801F0E2F800220821AE486B
:100E3C0001F0DDF800221021AB4801F0D8F80022B7
:100E4C002021A94801F0D3F801224021A64801F045
:100E5C00CEF844E101220121A34801F0C8F8002298
:100E6C000221A14801F0C3F8002204219E4801F0A0
:100E7C00BEF8012208219C4801F0B9F8012210218A
:100E8C00994801F0B4F801222021974801F0AFF8FD
:100E9C0001224021944801F0AAF820E1002201210E
:100EAC00914801F0A4F8002202218F4801F09FF82C
:100EBC00012204218C4801F09AF8002208218A486A
:100ECC0001F095F800221021874801F090F80122DA
:100EDC002021854801F08BF800224021824801F046
:100EEC0086F8FCE0002201217F4801F080F8002206
:100EFC0002217D4801F07BF8002204217A4801F0A0
:100F0C0076F800220821784801F071F801221021AE
:100F1C00754801F06CF801222021734801F067F844
:100F2C0000224021704801F062F8D8E00122012132
:100F3C006D4801F05CF8002202216B4801F057F873
:100F4C0000220421684801F052F801220821664869
:100F5C0001F04DF801221021634801F048F80022FD
:100F6C002021614801F043F8002240215E4801F045
:100F7C003EF8B4E0002201215B4801F038F8012270
:100F8C000221594801F033F800220421564801F09F
:100F9C002EF800220821544801F029F801221021D2
:100FAC00514801F024F8002220214F4801F01FF88D
:100FBC00002240214C4801F01AF890E00022012157
:100FCC00494801F014F801220221474801F00FF8BA
:100FDC0000220421444801F00AF80022082142486A
:100FEC0001F005F8002210213F4801F000F8002222
:100FFC0020213D4800F0FBFF002240213A4800F040
:10100C00F6FF6CE000220121374800F0F0FF0022CF
:10101C000221354800F0EBFF00220421324800F099
:10102C00E6FF01220821304800F0E1FF01221021E7
:10103C002D4800F0DCFF012220212B4800F0D7FFC7
:10104C0001224021284800F0D2FF48E00022012173
:10105C00254800F0CCFF00220221234800F0C7FFF6
:10106C0000220421204800F0C2FF002208211E4863
:10107C0000F0BDFF002210211B4800F0B8FF002239
:10108C002021194800F0B3FF00224021164800F03F
:10109C00AEFF24E000220121134800F0A8FF00223B
:1010AC000221114800F0A3FF002204210E4800F099
:1010BC009EFF002208210C4800F099FF012210210C
:1010CC00094800F094FF00222021074800F08FFF10
:1010DC0000224021044800F08AFF00E000BF00BF5E
:1010EC000837BD4680BD00BF000C014080B500AF85
:1010FC0000220221224800F07AFF0122042120481C
:10110C0000F075FF012208211D4800F070FF00223D
:10111C0010211B4800F06BFF00222021184800F022
:10112C0066FF00224021164800F061FF002280215A
:10113C00134800F05CFF00220121124800F057FF19
:10114C00012202210F4800F052FF012204210D4818
:10115C0000F04DFF002208210A4800F048FF002251
:10116C001021084800F043FF00222021054800F020
:10117C003EFF00224021034800F039FF00BF80BD34
:10118C0000080140000C014080B500AF00224FF474
:10119C008071114800F02BFF01224FF400710E48B2
:1011AC0000F025FF01224FF480610B4800F01FFF77
:1011BC0001228021094800F01AFF01224FF48071AE
:1011CC00064800F014FF00224FF40071034800F0B1
:1011DC000EFF00BF80BD00BF00080140000C0140A5
:1011EC0080B500AF00224FF48071114800F0FFFE73
:1011FC0001224FF400710E4800F0F9FE01224FF469
:10120C0080610B4800F0F3FE01228021094800F0B8
:10121C00EEFE00224FF48071064800F0E8FE012239
:10122C004FF40071034800F0E2FE00BF80BD00BF28
:10123C0000080140000C014080B500AF01224FF4C2
:10124C008071114800F0D3FE01224FF400710E485A
:10125C0000F0CDFE00224FF480610B4800F0C7FE79
:10126C0000228021094800F0C2FE01224FF4807157
:10127C00064800F0BCFE01224FF40071034800F058
:10128C00B6FE00BF80BD00BF00080140000C01404D
:10129C0080B500AF01224FF48071114800F0A7FE19
:1012AC0000224FF400710E4800F0A1FE01224FF411
:1012BC0080610B4800F09BFE00228021094800F061
:1012CC0096FE01224FF48071064800F090FE012238
:1012DC004FF40071034800F08AFE00BF80BD00BFD0
:1012EC0000080140000C014080B500AF00224FF413
:1012FC008071114800F07BFE01224FF400710E4802
:10130C0000F075FE01224FF480610B4800F06FFE77
:10131C0000228021094800F06AFE01224FF48071FE
:10132C00064800F064FE01224FF40071034800F0FF
:10133C005EFE00BF80BD00BF00080140000C0140F4
:10134C0080B500AF01224FF48071114800F04FFEC0
:10135C0000224FF400710E4800F049FE01224FF4B8
:10136C0080610B4800F043FE01228021094800F007
:10137C003EFE00224FF48071064800F038FE012238
:10138C004FF40071034800F032FE00BF80BD00BF77
:10139C0000080140000C014080B500AF01224FF461
:1013AC008071114800F023FE01224FF400710E48A9
:1013BC0000F01DFE00224FF480610B4800F017FE78
:1013CC0001228021094800F012FE01224FF48071A5
:1013DC00064800F00CFE00224FF40071034800F0A8
:1013EC0006FE00BF80BD00BF00080140000C01409C
:1013FC0080B500AF4FF48071104800F010FE012250
:10140C004FF400710D4800F0F2FD01224FF48061A1
:10141C000A4800F0ECFD8021094800F000FE012292
:10142C004FF48071064800F0E2FD01224FF4007188
:10143C00034800F0DCFD00BF80BD00BF0008014088
:10144C00000C014080B500AF01224FF480711048B0
:10145C0000F0CDFD4FF400710D4800F0E0FD0122CD
:10146C004FF480610A4800F0C2FD01228021094836
:10147C0000F0BDFD4FF48071064800F0D0FD012254
:10148C004FF40071034800F0B2FD00BF80BD00BFF7
:10149C0000080140000C014080B500AF01224FF460
:1014AC008071104800F0A3FD01224FF400710D482B
:1014BC0000F09DFD4FF480610A4800F0B0FD012260
:1014CC008021094800F093FD01224FF480710648F9
:1014DC0000F08DFD4FF40071034800F0A0FD00BF3B
:1014EC0080BD00BF00080140000C014080B500AF7A
:1014FC0001224FF48071114800F079FD01224FF464
:10150C0000710E4800F073FD01224FF480610B480E
:10151C0000F06DFD01228021094800F068FD0122D8
:10152C004FF48071064800F062FD01224FF4007107
:10153C00034800F05CFD00BF80BD00BF0008014007
:10154C00000C014080B500AF00F050FA00F00CF830
:10155C0000F092F800F044F8024801F0A5F9FEF70B
:10156C00C7FFFCE7E400002080B590B000AF07F1A6
:10157C00180328220021184601F052FD3B1D0022C1
:10158C001A605A609A60DA601A610223BB61012307
:10159C00BB621023FB6200237B6307F11803184620
:1015AC0000F056FD0346002B01D000F0D5F80F23B8
:1015BC007B600023BB600023FB6000233B610023A6
:1015CC007B613B1D0021184600F0C2FF0346002B37
:1015DC0001D000F0C1F800BF4037BD4680BD00000F
:1015EC0080B586B000AF07F1080300221A605A607C
:1015FC009A60DA603B4600221A605A601D4B4FF02D
:10160C0080421A601B4B41F63F725A60194B002204
:10161C009A60184B0922DA60164B00221A61154B9E
:10162C0000229A61134801F0EFF80346002B01D019
:10163C0000F092F84FF48053BB6007F10803194691
:10164C000C4801F085FA0346002B01D000F084F819
:10165C0000233B6000237B603B461946054801F0A4
:10166C0051FC0346002B01D000F076F800BF183770
:10167C00BD4680BDE400002080B586B000AF07F108
:10168C00080300221A605A609A60DA60294B9B6941
:10169C00284A43F004039361264B9B6903F004032F
:1016AC007B607B68234B9B69224A43F00803936160
:1016BC00204B9B6903F008033B603B68002241F61A
:1016CC00FE711D4800F093FC002240F2FF311B48D4
:1016DC0000F08DFC41F6FE73BB600123FB60002320
:1016EC003B6102237B6107F108031946124800F0A5
:1016FC00EDFA40F2FF33BB600123FB6000233B613A
:10170C0002237B6107F1080319460C4800F0DEFA4E
:10171C004FF46043BB600023FB6001233B6107F186
:10172C0008031946044800F0D1FA00BF1837BD462B
:10173C0080BD00BF0010024000080140000C0140B9
:10174C0080B582B000AF786000F05AF8FEF72CFE3E
:10175C0000BF0837BD4680BD80B400AF72B600BF75
:10176C00FEE7000080B483B000AF7860074B1B68C5
:10177C007A6892FBF3F3064A1360064B00221A6058
:10178C0000BF0C37BD4680BC704700BF580000201E
:10179C00CC000020D000002080B483B000AF786073
:1017AC00074B1B687A6892FBF3F3064A1360064BEF
:1017BC0000221A6000BF0C37BD4680BC704700BFCA
:1017CC0058000020D4000020D800002080B483B042
:1017DC0000AF7860074B1B687A6892FBF3F3064AFC
:1017EC001360064B00221A6000BF0C37BD4680BC4C
:1017FC00704700BF58000020DC000020E0000020F3
:10180C0080B400AF194B1B68002B0BDD174B1B680A
:10181C00013B164A1360154B1B68002B02DC144B62
:10182C0001221A60134B1B68002B0BDD114B1B683C
:10183C00013B104A13600F4B1B68002B02DC0E4B54
:10184C0001221A600D4B1B68002B0BDD0B4B1B6828
:10185C00013B0A4A1360094B1B68002B02DC084B46
:10186C0001221A6000BFBD4680BC7047CC0000202E
:10187C00D0000020D4000020D8000020DC00002084
:10188C00E000002080B485B000AF154B9B69144A72
:10189C0043F001039361124B9B6903F00103BB609E
:1018AC00BB680F4BDB690E4A43F08053D3610C4B82
:1018BC00DB6903F080537B607B680A4B5B68FB60E1
:1018CC00FB6823F0E063FB60FB6843F08063FB6024
:1018DC00044AFB68536000BF1437BD4680BC704798
:1018EC00001002400000014080B584B000AF786069
:1018FC007B681B68B3F1804F13D10C4BDB690B4A2F
:10190C0043F00103D361094BDB6903F00103FB6076
:10191C00FB68002200211C2000F0A1F91C2000F023
:10192C00BAF900BF1037BD4680BD00BF00100240A1
:10193C0080B400AFFEE780B400AFFEE780B400AF28
:10194C00FEE780B400AFFEE780B400AFFEE780B4E2
:10195C0000AF00BFBD4680BC704780B400AF00BF75
:10196C00BD4680BC704780B400AF00BFBD4680BC94
:10197C00704780B500AF00F07FF800BF80BD00005D
:10198C0080B500AF024800F0DBFF00BF80BD00BF98
:10199C00E400002080B400AF00BFBD4680BC70479F
:1019AC00FFF7F8FF0B480C490C4A002302E0D4580F
:1019BC00C4500433C4188C42F9D3094A094C00238F
:1019CC0001E013600432A242FBD301F005FBFFF7E8
:1019DC00B9FD70470000002068000020803000082E
:1019EC006800002030010020FEE7000080B500AF49
:1019FC00084B1B68074A43F010031360032000F0E8
:101A0C0023F90F2000F008F8FFF73CFF00231846DD
:101A1C0080BD00BF0020024080B582B000AF78606E
:101A2C00124B1A68124B1B7819464FF47A73B3FB9E
:101A3C00F1F3B2FBF3F3184600F03BF90346002B2D
:101A4C0001D001230EE07B680F2B0AD800227968A5
:101A5C004FF0FF3000F003F9064A7B681360002357
:101A6C0000E0012318460837BD4680BD5C0000200D
:101A7C00640000206000002080B400AF054B1B7890
:101A8C001A46054B1B681344034A136000BFBD463E
:101A9C0080BC7047640000202C01002080B400AF93
:101AAC00024B1B681846BD4680BC70472C010020B9
:101ABC0080B485B000AF78607B6803F00703FB60EF
:101ACC000C4BDB68BB60BA684FF6FF031340BB607E
:101ADC00FB681A02BB68134343F0BF6343F4003343
:101AEC00BB60044ABB68D36000BF1437BD4680BCE2
:101AFC00704700BF00ED00E080B400AF044BDB6822
:101B0C001B0A03F007031846BD4680BC704700BF94
:101B1C0000ED00E080B483B000AF0346FB7197F991
:101B2C000730002B0BDBFB7903F01F02064997F9FA
:101B3C0007305B09012000FA02F241F8232000BFB4
:101B4C000C37BD4680BC704700E100E080B483B028
:101B5C0000AF03463960FB7197F90730002B0ADBA5
:101B6C003B68DAB20C4997F907301201D2B20B4438
:101B7C0083F800230AE03B68DAB20849FB7903F0EA
:101B8C000F03043B1201D2B20B441A7600BF0C3780
:101B9C00BD4680BC704700BF00E100E000ED00E0F6
:101BAC0080B489B000AFF860B9607A60FB6803F06C
:101BBC000703FB61FB69C3F10703042B28BF042354
:101BCC00BB61FB690433062B02D9FB69033B00E0C4
:101BDC0000237B614FF0FF32BB6902FA03F3DA4357
:101BEC00BB681A407B699A404FF0FF317B6901FA60
:101BFC0003F3D9437B680B40134318462437BD4687
:101C0C0080BC704780B582B000AF78607B68013BC8
:101C1C00B3F1807F01D301230FE00A4A7B68013BBB
:101C2C0053600F214FF0FF30FFF790FF054B002260
:101C3C009A60044B07221A60002318460837BD46E9
:101C4C0080BD00BF10E000E080B582B000AF7860CE
:101C5C007868FFF72DFF00BF0837BD4680BD80B503
:101C6C0086B000AF0346B9607A60FB7300237B61DA
:101C7C00FFF742FF78617A68B9687869FFF790FFDF
:101C8C00024697F90F3011461846FFF75FFF00BF69
:101C9C001837BD4680BD80B582B000AF0346FB71DE
:101CAC0097F907301846FFF735FF00BF0837BD46D8
:101CBC0080BD80B582B000AF78607868FFF7A2FF76
:101CCC00034618460837BD4680BD000080B48BB073
:101CDC0000AF7860396000237B6200233B6248E1EF
:101CEC0001227B6A02FA03F3FB613B681B68FA6909
:101CFC001340BB61BA69FB699A4240F037813B687B
:101D0C005B68A34A93425ED0A14A934275D8A14A1C
:101D1C00934258D09F4A93426FD89F4A934252D0D5
:101D2C009D4A934269D89D4A93424CD09B4A934218
:101D3C0063D89B4A934246D0994A93425DD8122B62
:101D4C002AD8122B59D801A252F823F0D31D00081F
:101D5C00AD1D0008BF1D0008011E0008071E00086D
:101D6C00071E0008071E0008071E0008071E0008B3
:101D7C00071E0008071E0008071E0008071E0008A3
:101D8C00071E0008071E0008071E0008071E000893
:101D9C00B51D0008C91D0008824A934213D02CE0DF
:101DAC003B68DB683B6229E03B68DB6804333B62E1
:101DBC0024E03B68DB6808333B621FE03B68DB6870
:101DCC000C333B621AE03B689B68002B02D1042366
:101DDC003B6213E03B689B68012B05D108233B62F7
:101DEC007B68FA691A6109E008233B627B68FA692F
:101DFC005A6103E000233B6200E000BFBB69FF2B8C
:101E0C0001D87B6801E07B6804337B61BB69FF2BE5
:101E1C0002D87B6A9B0002E07B6A083B9B003B611B
:101E2C007B691A680F213B6901FA03F3DB431A4003
:101E3C00396A3B6901FA03F31A437B691A603B6800
:101E4C005B6803F08053002B00F09080564B9B692D
:101E5C00554A43F001039361534B9B6903F0010313
:101E6C00BB60BB68514A7B6A9B08023352F8233033
:101E7C00FB607B6A03F003039B000F2202FA03F35F
:101E8C00DB43FA681340FB607B68494A93420DD0F0
:101E9C007B68484A934207D07B68474A934201D1FA
:101EAC00022304E0032302E0012300E000237A6A0A
:101EBC0002F0030292009340FA681343FB603B4923
:101ECC007B6A9B080233FA6841F823203B685B6805
:101EDC0003F48013002B06D0384B9A683749BB6942
:101EEC0013438B6006E0354B9A68BB69DB4333497F
:101EFC0013408B603B685B6803F40013002B06D027
:101F0C002E4BDA682D49BB691343CB6006E02B4B93
:101F1C00DA68BB69DB4329491340CB603B685B68DB
:101F2C0003F40033002B06D0244B5A682349BB69B9
:101F3C0013434B6006E0214B5A68BB69DB431F49D6
:101F4C0013404B603B685B6803F48033002B06D076
:101F5C001A4B1A681949BB6913430B6006E0174BFF
:101F6C001A68BB69DB43154913400B607B6A01336C
:101F7C007B623B681A687B6A22FA03F3002B7FF4BE
:101F8C00AFAE00BF00BF2C37BD4680BC704700BF52
:101F9C00000032100000311000002210000021104F
:101FAC00000012100000111000100240000001404F
:101FBC0000080140000C01400010014000040140E9
:101FCC0080B485B000AF78600B467B807B689A68E4
:101FDC007B881340002B02D00123FB7301E000230C
:101FEC00FB73FB7B18461437BD4680BC704780B42E
:101FFC0083B000AF78600B467B8013467B707B7898
:10200C00002B03D07A887B681A6103E07B881A0462
:10201C007B681A6100BF0C37BD4680BC704780B42A
:10202C0085B000AF78600B467B807B68DB68FB601B
:10203C007A88FB6813401A04FB68D9437B880B40F1
:10204C001A437B681A6100BF1437BD4680BC7047C9
:10205C0080B586B000AF78607B68002B01D101237E
:10206C006CE27B681B6803F00103002B00F0878097
:10207C00924B5B6803F00C03042B0CD08F4B5B680A
:10208C0003F00C03082B12D18C4B5B6803F48033E8
:10209C00B3F5803F0BD1894B1B6803F40033002B45
:1020AC006CD07B685B68002B68D1012346E27B68AF
:1020BC005B68B3F5803F06D1804B1B687F4A43F4C5
:1020CC00803313602EE07B685B68002B0CD17B4B5C
:1020DC001B687A4A23F480331360784B1B68774A69
:1020EC0023F4802313601DE07B685B68B3F5A02F9D
:1020FC000CD1724B1B68714A43F4802313606F4BF5
:10210C001B686E4A43F4803313600BE06B4B1B6807
:10211C006A4A23F480331360684B1B68674A23F4C4
:10212C00802313607B685B68002B13D0FFF7B6FC31
:10213C00386108E0FFF7B2FC02463B69D31A642B06
:10214C0001D90323FAE15D4B1B6803F40033002B28
:10215C00F0D014E0FFF7A2FC386108E0FFF79EFC1A
:10216C0002463B69D31A642B01D90323E6E1534B96
:10217C001B6803F40033002BF0D100E000BF7B6838
:10218C001B6803F00203002B63D04C4B5B6803F01D
:10219C000C03002B0BD0494B5B6803F00C03082B92
:1021AC001CD1464B5B6803F48033002B16D1434B98
:1021BC001B6803F00203002B05D07B681B69012B05
:1021CC0001D00123BAE13D4B1B6823F0F8027B6878
:1021DC005B69DB00394913430B603AE07B681B6990
:1021EC00002B20D0364B01221A60FFF757FC3861C8
:1021FC0008E0FFF753FC02463B69D31A022B01D9C6
:10220C0003239BE12D4B1B6803F00203002BF0D042
:10221C002A4B1B6823F0F8027B685B69DB002749BB
:10222C0013430B6015E0264B00221A60FFF736FCB7
:10223C00386108E0FFF732FC02463B69D31A022BE7
:10224C0001D903237AE11D4B1B6803F00203002B19
:10225C00F0D17B681B6803F00803002B3AD07B6835
:10226C009B69002B19D0174B01221A60FFF716FC43
:10227C00386108E0FFF712FC02463B69D31A022BC7
:10228C0001D903235AE10D4B5B6A03F00203002BC7
:10229C00F0D0012000F09AFA1CE00A4B00221A60E0
:1022AC00FFF7FCFB38610FE0FFF7F8FB02463B69D8
:1022BC00D31A022B08D9032340E100BF00100240BF
:1022CC0000004242800442429E4B5B6A03F00203D0
:1022DC00002BE9D17B681B6803F00403002B00F092
:1022EC00A6800023FB75974BDB6903F08053002B12
:1022FC000DD1944BDB69934A43F08053D361914BDE
:10230C00DB6903F08053BB60BB680123FB758E4B0C
:10231C001B6803F48073002B18D18B4B1B688A4A03
:10232C0043F480731360FFF7B9FB386108E0FFF7E3
:10233C00B5FB02463B69D31A642B01D90323FDE09C
:10234C00814B1B6803F48073002BF0D07B68DB6837
:10235C00012B06D17B4B1B6A7A4A43F001031362B3
:10236C002DE07B68DB68002B0CD1764B1B6A754A21
:10237C0023F001031362734B1B6A724A23F00403AC
:10238C0013621CE07B68DB68052B0CD16D4B1B6A60
:10239C006C4A43F0040313626A4B1B6A694A43F0AC
:1023AC00010313620BE0674B1B6A664A23F00103BF
:1023BC001362644B1B6A634A23F0040313627B6849
:1023CC00DB68002B15D0FFF769FB38610AE0FFF7DB
:1023DC0065FB02463B69D31A41F28832934201D91C
:1023EC000323ABE0574B1B6A03F00203002BEED028
:1023FC0014E0FFF753FB38610AE0FFF74FFB02468E
:10240C003B69D31A41F28832934201D9032395E0F8
:10241C004C4B1B6A03F00203002BEED1FB7D012B0E
:10242C0005D1484BDB69474A23F08053D3617B6865
:10243C00DB69002B00F08180424B5B6803F00C03DE
:10244C00082B61D07B68DB69022B46D13F4B002205
:10245C001A60FFF723FB386108E0FFF71FFB024609
:10246C003B69D31A022B01D9032367E0354B1B6858
:10247C0003F00073002BF0D17B681B6AB3F5803F2F
:10248C0008D1304B5B6823F400327B689B682D4984
:10249C0013434B602B4B5B6823F474127B68196AF3
:1024AC007B685B6A0B43274913434B60274B012224
:1024BC001A60FFF7F3FA386108E0FFF7EFFA02460B
:1024CC003B69D31A022B01D9032337E01D4B1B6840
:1024DC0003F00073002BF0D02FE01C4B00221A608D
:1024EC00FFF7DCFA386108E0FFF7D8FA02463B69DF
:1024FC00D31A022B01D9032320E0124B1B6803F0E3
:10250C000073002BF0D118E07B68DB69012B01D143
:10251C00012313E00B4B5B68FB60FB6803F4803218
:10252C007B681B6A9A4206D1FB6803F470127B68C5
:10253C005B6A9A4201D0012300E000231846183749
:10254C00BD4680BD00100240007000406000424259
:10255C0080B584B000AF786039607B68002B01D106
:10256C000123D0E06A4B1B6803F007033A689A42D8
:10257C0010D9674B1B6823F0070265493B6813436E
:10258C000B60634B1B6803F007033A689A4201D057
:10259C000123B8E07B681B6803F00203002B20D0FA
:1025AC007B681B6803F00403002B05D0594B5B6858
:1025BC00584A43F4E06353607B681B6803F00803DC
:1025CC00002B05D0534B5B68524A43F46053536065
:1025DC00504B5B6823F0F0027B689B684D491343BA
:1025EC004B607B681B6803F00103002B40D07B68B9
:1025FC005B68012B07D1474B1B6803F40033002B9E
:10260C0015D101237FE07B685B68022B07D1414B1E
:10261C001B6803F00073002B09D1012373E03D4BC1
:10262C001B6803F00203002B01D101236BE0394B33
:10263C005B6823F003027B685B68364913434B608D
:10264C00FFF72CFAF8600AE0FFF728FA0246FB685D
:10265C00D31A41F28832934201D9032353E02D4B14
:10266C005B6803F00C027B685B689B009A42EBD1C1
:10267C00274B1B6803F007033A689A4210D2244B8D
:10268C001B6823F0070222493B6813430B60204B65
:10269C001B6803F007033A689A4201D0012332E029
:1026AC007B681B6803F00403002B08D0194B5B6894
:1026BC0023F4E0627B68DB68164913434B607B684C
:1026CC001B6803F00803002B09D0124B5B6823F442
:1026DC0060527B681B69DB000E4913434B6000F0B2
:1026EC0021F802460B4B5B681B0903F00F030A49E8
:1026FC00CB5C22FA03F3094A1360094B1B6818469A
:10270C00FFF78AF9002318461037BD4680BD00BF7D
:10271C000020024000100240543000085C000020F1
:10272C006000002080B487B000AF0023FB60002362
:10273C00BB6000237B6100237B6000233B611E4B4D
:10274C005B68FB60FB6803F00C03042B02D0082BC6
:10275C0003D027E0194B3B6127E0FB689B0C03F08F
:10276C000F03174AD35C7B60FB6803F48033002BA8
:10277C0010D0114B5B685B0C03F00103114AD35C66
:10278C00BB607B680D4A02FB03F2BB68B2FBF3F340
:10279C007B6104E07B680C4A02FB03F37B617B6981
:1027AC003B6102E0054B3B6100BF3B6918461C379F
:1027BC00BD4680BC704700BF0010024000127A007A
:1027CC00643000087430000800093D0080B485B006
:1027DC0000AF78600A4B1B680A4AA2FB03235B0A12
:1027EC007A6802FB03F3FB6000BFFB685A1EFA60B9
:1027FC00002BF9D100BF00BF1437BD4680BC704719
:10280C005C000020D34D621080B582B000AF7860C0
:10281C007B68002B01D1012341E07B6893F83D30AC
:10282C00DBB2002B06D17B68002283F83C20786851
:10283C00FFF75AF87B68022283F83D207B681A6800
:10284C007B6804331946104600F06EFA7B6801224F
:10285C0083F846207B68012283F83E207B680122A6
:10286C0083F83F207B68012283F840207B6801229B
:10287C0083F841207B68012283F842207B68012287
:10288C0083F843207B68012283F844207B68012273
:10289C0083F845207B68012283F83D2000231846ED
:1028AC000837BD4680BD000080B485B000AF7860AD
:1028BC007B6893F83D30DBB2012B01D0012335E06E
:1028CC007B68022283F83D207B681B68DA687B6892
:1028DC001B6842F00102DA607B681B68164A93425F
:1028EC0009D07B681B68B3F1804F04D07B681B68F0
:1028FC00124A934211D17B681B689B6803F0070353
:10290C00FB60FB68062B10D07B681B681A687B6821
:10291C001B6842F001021A6007E07B681B681A68AA
:10292C007B681B6842F001021A60002318461437BA
:10293C00BD4680BC704700BF002C01400004004025
:10294C0080B582B000AF78607B681B681B6903F0B0
:10295C000203022B22D17B681B68DB6803F00203A5
:10296C00022B1BD17B681B686FF002021A617B681B
:10297C0001221A777B681B689B6903F00303002B09
:10298C0003D0786800F0B4F905E0786800F0A7F996
:10299C00786800F0B6F97B6800221A777B681B68B0
:1029AC001B6903F00403042B22D17B681B68DB68D2
:1029BC0003F00403042B1BD17B681B686FF004022B
:1029CC001A617B6802221A777B681B689B6903F487
:1029DC004073002B03D0786800F08AF905E0786822
:1029EC0000F07DF9786800F08CF97B6800221A778A
:1029FC007B681B681B6903F00803082B22D17B68DA
:102A0C001B68DB6803F00803082B1BD17B681B6871
:102A1C006FF008021A617B6804221A777B681B68C6
:102A2C00DB6903F00303002B03D0786800F060F936
:102A3C0005E0786800F053F9786800F062F97B687B
:102A4C0000221A777B681B681B6903F01003102B9C
:102A5C0022D17B681B68DB6803F01003102B1BD1A1
:102A6C007B681B686FF010021A617B6808221A776A
:102A7C007B681B68DB6903F44073002B03D0786818
:102A8C0000F036F905E0786800F029F9786800F074
:102A9C0038F97B6800221A777B681B681B6903F086
:102AAC000103012B0ED17B681B68DB6803F001036B
:102ABC00012B07D17B681B686FF001021A617868E3
:102ACC00FEF73EFE7B681B681B6903F08003802BBE
:102ADC000ED17B681B68DB6803F08003802B07D169
:102AEC007B681B686FF080021A61786800F06BFAE3
:102AFC007B681B681B6903F04003402B0ED17B687D
:102B0C001B68DB6803F04003402B07D17B681B6814
:102B1C006FF040021A61786800F0FCF87B681B6863
:102B2C001B6903F02003202B0ED17B681B68DB682C
:102B3C0003F02003202B07D17B681B686FF0200269
:102B4C001A61786800F036FA00BF0837BD4680BDC0
:102B5C0080B584B000AF786039600023FB737B686C
:102B6C0093F83C30012B01D10223B4E07B680122A5
:102B7C0083F83C207B68022283F83D207B681B682D
:102B8C009B68BB60BB6823F07703BB60BB6823F416
:102B9C007F43BB607B681B68BA689A603B681B68A4
:102BAC00B3F5005F3ED0B3F5005F00F28780B3F55C
:102BBC00805F00F08680B3F5805F7FD8702B1AD0D1
:102BCC00702B7BD8602B50D0602B77D8502B3CD0FF
:102BDC00502B73D8402B58D0402B6FD8302B64D04F
:102BEC00302B6BD8202B60D0202B67D8002B5CD0DF
:102BFC00102B5AD062E07B6818683B6899683B6878
:102C0C005A683B68DB6800F05EF97B681B689B6860
:102C1C00BB60BB6843F07703BB607B681B68BA681A
:102C2C009A604FE07B6818683B6899683B685A6803
:102C3C003B68DB6800F047F97B681B689A687B6827
:102C4C001B6842F480429A603CE07B6818683B68E1
:102C5C0059683B68DB681A4600F0BEF87B681B6855
:102C6C005021184600F015F92CE07B6818683B6879
:102C7C0059683B68DB681A4600F0DCF87B681B6817
:102C8C006021184600F005F91CE07B6818683B6869
:102C9C0059683B68DB681A4600F09EF87B681B6835
:102CAC004021184600F0F5F80CE07B681A683B6888
:102CBC001B681946104600F0ECF803E00123FB7387
:102CCC0000E000BF7B68012283F83D207B68002276
:102CDC0083F83C20FB7B18461037BD4680BD80B482
:102CEC0083B000AF786000BF0C37BD4680BC704726
:102CFC0080B483B000AF786000BF0C37BD4680BC99
:102D0C00704780B483B000AF786000BF0C37BD460D
:102D1C0080BC704780B483B000AF786000BF0C37C4
:102D2C00BD4680BC7047000080B485B000AF7860B1
:102D3C0039607B681B68FB607B68254A934207D02F
:102D4C007B68B3F1804F03D07B68224A934208D151
:102D5C00FB6823F07003FB603B685B68FA68134305
:102D6C00FB607B681A4A934207D07B68B3F1804FB3
:102D7C0003D07B68174A934208D1FB6823F4407355
:102D8C00FB603B68DB68FA681343FB60FB6823F06D
:102D9C0080023B685B691343FB607B68FA681A60CE
:102DAC003B689A687B68DA623B681A687B689A624F
:102DBC007B68074A934203D13B681A697B681A63A4
:102DCC007B6801225A6100BF1437BD4680BC704736
:102DDC00002C01400004004080B487B000AFF860C4
:102DEC00B9607A60FB681B6A7B61FB681B6A23F025
:102DFC000102FB681A62FB689B693B613B6923F02B
:102E0C00F0033B617B681B013A6913433B617B69AF
:102E1C0023F00A037B617A69BB6813437B61FB680F
:102E2C003A699A61FB687A691A6200BF1C37BD4621
:102E3C0080BC704780B487B000AFF860B9607A602E
:102E4C00FB681B6A7B61FB681B6A23F01002FB6842
:102E5C001A62FB689B693B613B6923F470433B61DD
:102E6C007B681B033A6913433B617B6923F0A00326
:102E7C007B61BB681B017A6913437B61FB683A6910
:102E8C009A61FB687A691A6200BF1C37BD4680BC28
:102E9C00704780B485B000AF786039607B689B6800
:102EAC00FB60FB6823F07003FB603A68FB6813431C
:102EBC0043F00703FB607B68FA689A6000BF143725
:102ECC00BD4680BC704780B487B000AFF860B96075
:102EDC007A603B60FB689B687B617B6923F47F4372
:102EEC007B613B681A027B681A43BB6813437A699F
:102EFC0013437B61FB687A699A6000BF1C37BD463F
:102F0C0080BC704780B485B000AF786039607B6856
:102F1C0093F83C30012B01D1022341E07B68012264
:102F2C0083F83C207B68022283F83D207B681B6879
:102F3C005B68FB607B681B689B68BB60FB6823F06D
:102F4C007003FB603B681B68FA681343FB607B688B
:102F5C001B68FA685A607B681B68144A934209D054
:102F6C007B681B68B3F1804F04D07B681B68104AE8
:102F7C0093420CD1BB6823F08003BB603B685B6859
:102F8C00BA681343BB607B681B68BA689A607B683D
:102F9C00012283F83D207B68002283F83C2000232B
:102FAC0018461437BD4680BC704700BF002C01404A
:102FBC000004004080B483B000AF786000BF0C37D1
:102FCC00BD4680BC704780B483B000AF786000BF52
:102FDC000C37BD4680BC704770B500260C4D0D4CAF
:102FEC00641BA410A64209D100F022F800260A4D59
:102FFC000A4C641BA410A64205D170BD55F8043BC5
:10300C0098470136EEE755F8043B98470136F2E74E
:10301C007830000878300008783000087C300008E0
:10302C0003460244934200D1704703F8011BF9E7B1
:10303C00F8B500BFF8BC08BC9E467047F8B500BF99
:08304C00F8BC08BC9E46704769
:103054000000000000000000010203040607080944
:1030640002030405060708090A0B0C0D0E0F1010C5
:043074000102000055
:04307800310100081A
:04307C000D0100083A
:10308000010000000100000001000000010000003C
:10309000010000000100000001000000010000002C
:1030A000010000000100000001000000010000001C
:1030B000D0070000D0070000D0070000010000008A
:1030C00006000000020000000400000006000000EE
:1030D00002000000040000000A0000000024F400C8
:0830E0001000000001000000D7
:04000005080019AD29
:00000001FF
